{
  "contractName": "ForTest",
  "abi": [
    {
      "constant": false,
      "inputs": [],
      "name": "x",
      "outputs": [],
      "payable": false,
      "stateMutability": "nonpayable",
      "type": "function"
    },
    {
      "constant": false,
      "inputs": [
        {
          "name": "x",
          "type": "int256[]"
        }
      ],
      "name": "set2",
      "outputs": [],
      "payable": false,
      "stateMutability": "nonpayable",
      "type": "function"
    },
    {
      "constant": false,
      "inputs": [],
      "name": "get",
      "outputs": [
        {
          "name": "",
          "type": "int256[]"
        }
      ],
      "payable": false,
      "stateMutability": "nonpayable",
      "type": "function"
    },
    {
      "constant": false,
      "inputs": [
        {
          "name": "upper",
          "type": "uint256"
        }
      ],
      "name": "random",
      "outputs": [
        {
          "name": "randomNumber",
          "type": "uint256"
        }
      ],
      "payable": false,
      "stateMutability": "nonpayable",
      "type": "function"
    },
    {
      "constant": false,
      "inputs": [
        {
          "name": "roomId",
          "type": "uint256"
        }
      ],
      "name": "deal",
      "outputs": [
        {
          "name": "",
          "type": "uint256"
        }
      ],
      "payable": false,
      "stateMutability": "nonpayable",
      "type": "function"
    },
    {
      "constant": false,
      "inputs": [],
      "name": "maxRandom",
      "outputs": [
        {
          "name": "randomNumber",
          "type": "uint256"
        }
      ],
      "payable": false,
      "stateMutability": "nonpayable",
      "type": "function"
    },
    {
      "constant": false,
      "inputs": [
        {
          "name": "roomId",
          "type": "uint256"
        }
      ],
      "name": "shuffle",
      "outputs": [],
      "payable": false,
      "stateMutability": "nonpayable",
      "type": "function"
    },
    {
      "constant": false,
      "inputs": [],
      "name": "test",
      "outputs": [],
      "payable": false,
      "stateMutability": "nonpayable",
      "type": "function"
    },
    {
      "anonymous": false,
      "inputs": [],
      "name": "Shuffle",
      "type": "event"
    },
    {
      "anonymous": false,
      "inputs": [
        {
          "indexed": true,
          "name": "value",
          "type": "uint256"
        },
        {
          "indexed": false,
          "name": "protocol",
          "type": "uint256"
        },
        {
          "indexed": false,
          "name": "upper",
          "type": "uint256"
        },
        {
          "indexed": false,
          "name": "index",
          "type": "uint256"
        }
      ],
      "name": "Deal",
      "type": "event"
    },
    {
      "constant": false,
      "inputs": [],
      "name": "k",
      "outputs": [],
      "payable": false,
      "stateMutability": "nonpayable",
      "type": "function"
    }
  ],
  "bytecode": "0x6060604052341561000f57600080fd5b610a088061001e6000396000f300606060405260043610610099576000357c0100000000000000000000000000000000000000000000000000000000900463ffffffff1680630c55699c1461009e57806346a2f611146100b35780636d4ce63c1461010d578063b4f40c6114610177578063b863bd371461018c578063c959c42b146101c3578063e72f5f63146101fa578063ef6537b514610223578063f8a8fd6d14610246575b600080fd5b34156100a957600080fd5b6100b161025b565b005b34156100be57600080fd5b61010b6004808035906020019082018035906020019080806020026020016040519081016040528093929190818152602001838360200280828437820191505050505050919050506102fa565b005b341561011857600080fd5b61012061031c565b6040518080602001828103825283818151815260200191508051906020019060200280838360005b83811015610163578082015181840152602081019050610148565b505050509050019250505060405180910390f35b341561018257600080fd5b61018a61037a565b005b341561019757600080fd5b6101ad6004808035906020019091905050610386565b6040518082815260200191505060405180910390f35b34156101ce57600080fd5b6101e460048080359060200190919050506103a2565b6040518082815260200191505060405180910390f35b341561020557600080fd5b61020d610639565b6040518082815260200191505060405180910390f35b341561022e57600080fd5b61024460048080359060200190919050506106cb565b005b341561025157600080fd5b610259610820565b005b610263610878565b60016040518059106102725750595b90808252806020026020018201604052509050600881600081518110151561029657fe5b90602001906020020181815250506102ae600261084c565b6102b6610820565b6102bf816102fa565b8060008151811015156102ce57fe5b90602001906020020151600260008154811015156102e857fe5b90600052602060002090018190555050565b600881600081518110151561030b57fe5b906020019060200201818152505050565b610324610878565b600280548060200260200160405190810160405280929190818152602001828054801561037057602002820191906000526020600020905b81548152602001906001019080831161035c575b5050505050905090565b610384600261084c565b565b600081610391610639565b81151561039a57fe5b069050919050565b600080600080600080600160008881526020019081526020016000208054905014156104185760007faaf4697248fd59526664150dce1f271cba1f3d2c50c65c2d84075df3cf0fbade605860008060405180848152602001838152602001828152602001935050505060405180910390a2610630565b60016000878152602001908152602001600020805490509350600161043c85610386565b039250600160008781526020019081526020016000208381548110151561045f57fe5b9060005260206000209060020201915081600101547faaf4697248fd59526664150dce1f271cba1f3d2c50c65c2d84075df3cf0fbade6063868660405180848152602001838152602001828152602001935050505060405180910390a28290505b600184038110156105b15760016000878152602001908152602001600020600182018154811015156104ee57fe5b9060005260206000209060020201600160008881526020019081526020016000208281548110151561051c57fe5b90600052602060002090600202016000820160009054906101000a90047f0100000000000000000000000000000000000000000000000000000000000000028160000160006101000a81548160ff02191690837f0100000000000000000000000000000000000000000000000000000000000000900402179055506001820154816001015590505080806001019150506104c0565b60016000878152602001908152602001600020600185038154811015156105d457fe5b9060005260206000209060020201600080820160006101000a81549060ff02191690556001820160009055505060016000878152602001908152602001600020805480919060019003610627919061088c565b50816001015494505b50505050919050565b6000805460014303404241446040518086815260200185600019166000191681526020018481526020018373ffffffffffffffffffffffffffffffffffffffff1673ffffffffffffffffffffffffffffffffffffffff166c0100000000000000000000000002815260140182815260200195505050505050604051809103902060019004600081905550600054905090565b60006106d56108be565b6001600084815260200190815260200160002060006106f491906108fa565b600091505b603460ff1682101561081b5760007f01000000000000000000000000000000000000000000000000000000000000000281600001907effffffffffffffffffffffffffffffffffffffffffffffffffffffffffffff191690817effffffffffffffffffffffffffffffffffffffffffffffffffffffffffffff191681525050600182018160200181815250506001600084815260200190815260200160002080548060010182816107aa919061091e565b9160005260206000209060020201600083909190915060008201518160000160006101000a81548160ff02191690837f0100000000000000000000000000000000000000000000000000000000000000900402179055506020820151816001015550505081806001019250506106f9565b505050565b600280548060010182816108349190610950565b91600052602060002090016000600290919091505550565b80805480600101828161085f9190610950565b9160005260206000209001600060019091909150555050565b602060405190810160405280600081525090565b8154818355818115116108b9576002028160020283600052602060002091820191016108b8919061097c565b5b505050565b604080519081016040528060007effffffffffffffffffffffffffffffffffffffffffffffffffffffffffffff19168152602001600081525090565b508054600082556002029060005260206000209081019061091b919061097c565b50565b81548183558181151161094b5760020281600202836000526020600020918201910161094a919061097c565b5b505050565b8154818355818115116109775781836000526020600020918201910161097691906109b7565b5b505050565b6109b491905b808211156109b057600080820160006101000a81549060ff0219169055600182016000905550600201610982565b5090565b90565b6109d991905b808211156109d55760008160009055506001016109bd565b5090565b905600a165627a7a723058202c3c2d44e9368570b9f4e14d4b8a3cfd89291c91dfcdec5210c4bfae5f9d8d810029",
  "source": "pragma solidity ^0.4.19;\n\ncontract Baccarat {\n\tuint256 _seed;\n    uint8 constant private CARD_TOTAL = 52;\n\tmapping(uint256 => Card[]) private cards; \n\n\tevent Shuffle();\n    event Deal(\n\t\tuint256 indexed value, \n\t\tuint256 protocol, \n\t\tuint256 upper, \n\t\tuint256 index\n\t);\n\n\tstruct Card {\n\t    bytes1 status;\n\t\tuint256 value;\n\t}\n\tint[] internal data1;\n\n\tfunction shuffle(uint256 roomId) public {\n\t\tdelete cards[roomId];\n\n\t    for(uint256 i=0; i<CARD_TOTAL; i++) {\n\t\t\tCard memory card;\n\t\t\tcard.status = bytes1(0);\n\t\t\tcard.value = i+1;\n\t\t    cards[roomId].push(card);\t\n\t\t}\n\t}\n\n\tfunction maxRandom() public returns (uint256 randomNumber) {\n\t    _seed = uint256(keccak256(\n\t\t    _seed,\n\t\t\tblock.blockhash(block.number - 1),\n\t\t\tnow,\n\t\t\tblock.coinbase,\n\t\t\tblock.difficulty\n\t\t));\n\t\treturn _seed;\n\t}\n\n\tfunction random(uint256 upper) public returns (uint256 randomNumber) {\n\t    return maxRandom() % upper;\n\t}\n\n\tfunction deal(uint256 roomId) public returns(uint256) {\n\t\tif(cards[roomId].length == 0) {\n\t\t\tDeal(0, 88, 0, 0);\n\t\t\treturn;\n\t\t}\n\t\tvar upper = cards[roomId].length;\n        var index = random(upper)-1;\n\t\tvar card  = cards[roomId][index];\n\t\t\n\t\tDeal(card.value, 99, upper, index);\n\n\t\tfor(uint256 i=index; i<(upper-1); i++) {\n\t        cards[roomId][i] = cards[roomId][i+1];\n\t\t}\n\t\tdelete cards[roomId][upper-1];\n\t\tcards[roomId].length--;\n\n\t\treturn card.value; \n\t}\n\n    function set2(int[] x) public {\n\t    x[0] = 8;\n\t}\n\n\tfunction set(int[] storage x) internal  {\n\t    x.push(1);\n\t}\n\n\tfunction test() public {\n\t    data1.push(2);\n\t}\n\n\tfunction x() public {\n\t\tint[] memory f = new int[](1);\n\t\tf[0] = 8;\n\t    set(data1);\n\t\ttest();\n\t\tset2(f);\n\t\tdata1[0] = f[0];\n\t}\n\n\tfunction get() public returns(int[]) {\n        return data1;\t\n\t}\n\n}\ncontract ForTest is Baccarat {\n   function k() public {\n       set(data1);\n   } \n}\n",
  "sourcePath": "/Users/knight/Documents/geth/smart-contracts/baccarat/contracts/Baccarat.sol",
  "compiler": {
    "name": "solc",
    "version": "0.4.19+commit.c4cbbb05.Emscripten.clang"
  },
  "schemaVersion": "2.0.0",
  "updatedAt": "2018-05-02T06:44:35.566Z"
}