{
  "contractName": "Baccarat3",
  "abi": [
    {
      "constant": true,
      "inputs": [
        {
          "name": "",
          "type": "uint256"
        },
        {
          "name": "",
          "type": "uint256"
        },
        {
          "name": "",
          "type": "uint256"
        }
      ],
      "name": "cards",
      "outputs": [
        {
          "name": "",
          "type": "uint8"
        }
      ],
      "payable": false,
      "stateMutability": "view",
      "type": "function"
    },
    {
      "anonymous": false,
      "inputs": [
        {
          "indexed": false,
          "name": "shuffle",
          "type": "uint256"
        }
      ],
      "name": "LogShuffle",
      "type": "event"
    },
    {
      "anonymous": false,
      "inputs": [
        {
          "indexed": false,
          "name": "card",
          "type": "uint8[]"
        }
      ],
      "name": "LogCards",
      "type": "event"
    },
    {
      "constant": false,
      "inputs": [
        {
          "name": "_roomId",
          "type": "uint256"
        },
        {
          "name": "_pokersNum",
          "type": "uint8"
        }
      ],
      "name": "shuffle",
      "outputs": [
        {
          "name": "",
          "type": "uint8"
        }
      ],
      "payable": false,
      "stateMutability": "nonpayable",
      "type": "function"
    },
    {
      "constant": false,
      "inputs": [
        {
          "name": "_roomId",
          "type": "uint256"
        }
      ],
      "name": "shuffle",
      "outputs": [
        {
          "name": "",
          "type": "bool"
        }
      ],
      "payable": false,
      "stateMutability": "nonpayable",
      "type": "function"
    },
    {
      "constant": false,
      "inputs": [
        {
          "name": "_roomId",
          "type": "uint256"
        }
      ],
      "name": "dealCard",
      "outputs": [
        {
          "name": "",
          "type": "uint8[]"
        }
      ],
      "payable": false,
      "stateMutability": "nonpayable",
      "type": "function"
    }
  ],
  "bytecode": "0x60806040526101006040519081016040528061068060405190810160405280600160ff168152602001600260ff168152602001600360ff168152602001600460ff168152602001600560ff168152602001600660ff168152602001600760ff168152602001600860ff168152602001600960ff168152602001600a60ff168152602001600b60ff168152602001600c60ff168152602001600d60ff168152602001601160ff168152602001601260ff168152602001601360ff168152602001601460ff168152602001601560ff168152602001601660ff168152602001601760ff168152602001601860ff168152602001601960ff168152602001601a60ff168152602001601b60ff168152602001601c60ff168152602001601d60ff168152602001602160ff168152602001602260ff168152602001602360ff168152602001602460ff168152602001602560ff168152602001602660ff168152602001602760ff168152602001602860ff168152602001602960ff168152602001602a60ff168152602001602b60ff168152602001602c60ff168152602001602d60ff168152602001603160ff168152602001603260ff168152602001603360ff168152602001603460ff168152602001603560ff168152602001603660ff168152602001603760ff168152602001603860ff168152602001603960ff168152602001603a60ff168152602001603b60ff168152602001603c60ff168152602001603d60ff16815250815260200161068060405190810160405280600160ff168152602001600260ff168152602001600360ff168152602001600460ff168152602001600560ff168152602001600660ff168152602001600760ff168152602001600860ff168152602001600960ff168152602001600a60ff168152602001600b60ff168152602001600c60ff168152602001600d60ff168152602001601160ff168152602001601260ff168152602001601360ff168152602001601460ff168152602001601560ff168152602001601660ff168152602001601760ff168152602001601860ff168152602001601960ff168152602001601a60ff168152602001601b60ff168152602001601c60ff168152602001601d60ff168152602001602160ff168152602001602260ff168152602001602360ff168152602001602460ff168152602001602560ff168152602001602660ff168152602001602760ff168152602001602860ff168152602001602960ff168152602001602a60ff168152602001602b60ff168152602001602c60ff168152602001602d60ff168152602001603160ff168152602001603260ff168152602001603360ff168152602001603460ff168152602001603560ff168152602001603660ff168152602001603760ff168152602001603860ff168152602001603960ff168152602001603a60ff168152602001603b60ff168152602001603c60ff168152602001603d60ff16815250815260200161068060405190810160405280600160ff168152602001600260ff168152602001600360ff168152602001600460ff168152602001600560ff168152602001600660ff168152602001600760ff168152602001600860ff168152602001600960ff168152602001600a60ff168152602001600b60ff168152602001600c60ff168152602001600d60ff168152602001601160ff168152602001601260ff168152602001601360ff168152602001601460ff168152602001601560ff168152602001601660ff168152602001601760ff168152602001601860ff168152602001601960ff168152602001601a60ff168152602001601b60ff168152602001601c60ff168152602001601d60ff168152602001602160ff168152602001602260ff168152602001602360ff168152602001602460ff168152602001602560ff168152602001602660ff168152602001602760ff168152602001602860ff168152602001602960ff168152602001602a60ff168152602001602b60ff168152602001602c60ff168152602001602d60ff168152602001603160ff168152602001603260ff168152602001603360ff168152602001603460ff168152602001603560ff168152602001603660ff168152602001603760ff168152602001603860ff168152602001603960ff168152602001603a60ff168152602001603b60ff168152602001603c60ff168152602001603d60ff16815250815260200161068060405190810160405280600160ff168152602001600260ff168152602001600360ff168152602001600460ff168152602001600560ff168152602001600660ff168152602001600760ff168152602001600860ff168152602001600960ff168152602001600a60ff168152602001600b60ff168152602001600c60ff168152602001600d60ff168152602001601160ff168152602001601260ff168152602001601360ff168152602001601460ff168152602001601560ff168152602001601660ff168152602001601760ff168152602001601860ff168152602001601960ff168152602001601a60ff168152602001601b60ff168152602001601c60ff168152602001601d60ff168152602001602160ff168152602001602260ff168152602001602360ff168152602001602460ff168152602001602560ff168152602001602660ff168152602001602760ff168152602001602860ff168152602001602960ff168152602001602a60ff168152602001602b60ff168152602001602c60ff168152602001602d60ff168152602001603160ff168152602001603260ff168152602001603360ff168152602001603460ff168152602001603560ff168152602001603660ff168152602001603760ff168152602001603860ff168152602001603960ff168152602001603a60ff168152602001603b60ff168152602001603c60ff168152602001603d60ff16815250815260200161068060405190810160405280600160ff168152602001600260ff168152602001600360ff168152602001600460ff168152602001600560ff168152602001600660ff168152602001600760ff168152602001600860ff168152602001600960ff168152602001600a60ff168152602001600b60ff168152602001600c60ff168152602001600d60ff168152602001601160ff168152602001601260ff168152602001601360ff168152602001601460ff168152602001601560ff168152602001601660ff168152602001601760ff168152602001601860ff168152602001601960ff168152602001601a60ff168152602001601b60ff168152602001601c60ff168152602001601d60ff168152602001602160ff168152602001602260ff168152602001602360ff168152602001602460ff168152602001602560ff168152602001602660ff168152602001602760ff168152602001602860ff168152602001602960ff168152602001602a60ff168152602001602b60ff168152602001602c60ff168152602001602d60ff168152602001603160ff168152602001603260ff168152602001603360ff168152602001603460ff168152602001603560ff168152602001603660ff168152602001603760ff168152602001603860ff168152602001603960ff168152602001603a60ff168152602001603b60ff168152602001603c60ff168152602001603d60ff16815250815260200161068060405190810160405280600160ff168152602001600260ff168152602001600360ff168152602001600460ff168152602001600560ff168152602001600660ff168152602001600760ff168152602001600860ff168152602001600960ff168152602001600a60ff168152602001600b60ff168152602001600c60ff168152602001600d60ff168152602001601160ff168152602001601260ff168152602001601360ff168152602001601460ff168152602001601560ff168152602001601660ff168152602001601760ff168152602001601860ff168152602001601960ff168152602001601a60ff168152602001601b60ff168152602001601c60ff168152602001601d60ff168152602001602160ff168152602001602260ff168152602001602360ff168152602001602460ff168152602001602560ff168152602001602660ff168152602001602760ff168152602001602860ff168152602001602960ff168152602001602a60ff168152602001602b60ff168152602001602c60ff168152602001602d60ff168152602001603160ff168152602001603260ff168152602001603360ff168152602001603460ff168152602001603560ff168152602001603660ff168152602001603760ff168152602001603860ff168152602001603960ff168152602001603a60ff168152602001603b60ff168152602001603c60ff168152602001603d60ff16815250815260200161068060405190810160405280600160ff168152602001600260ff168152602001600360ff168152602001600460ff168152602001600560ff168152602001600660ff168152602001600760ff168152602001600860ff168152602001600960ff168152602001600a60ff168152602001600b60ff168152602001600c60ff168152602001600d60ff168152602001601160ff168152602001601260ff168152602001601360ff168152602001601460ff168152602001601560ff168152602001601660ff168152602001601760ff168152602001601860ff168152602001601960ff168152602001601a60ff168152602001601b60ff168152602001601c60ff168152602001601d60ff168152602001602160ff168152602001602260ff168152602001602360ff168152602001602460ff168152602001602560ff168152602001602660ff168152602001602760ff168152602001602860ff168152602001602960ff168152602001602a60ff168152602001602b60ff168152602001602c60ff168152602001602d60ff168152602001603160ff168152602001603260ff168152602001603360ff168152602001603460ff168152602001603560ff168152602001603660ff168152602001603760ff168152602001603860ff168152602001603960ff168152602001603a60ff168152602001603b60ff168152602001603c60ff168152602001603d60ff16815250815260200161068060405190810160405280600160ff168152602001600260ff168152602001600360ff168152602001600460ff168152602001600560ff168152602001600660ff168152602001600760ff168152602001600860ff168152602001600960ff168152602001600a60ff168152602001600b60ff168152602001600c60ff168152602001600d60ff168152602001601160ff168152602001601260ff168152602001601360ff168152602001601460ff168152602001601560ff168152602001601660ff168152602001601760ff168152602001601860ff168152602001601960ff168152602001601a60ff168152602001601b60ff168152602001601c60ff168152602001601d60ff168152602001602160ff168152602001602260ff168152602001602360ff168152602001602460ff168152602001602560ff168152602001602660ff168152602001602760ff168152602001602860ff168152602001602960ff168152602001602a60ff168152602001602b60ff168152602001602c60ff168152602001602d60ff168152602001603160ff168152602001603260ff168152602001603360ff168152602001603460ff168152602001603560ff168152602001603660ff168152602001603760ff168152602001603860ff168152602001603960ff168152602001603a60ff168152602001603b60ff168152602001603c60ff168152602001603d60ff168152508152506000906008620010e1929190620010f6565b50348015620010ef57600080fd5b5062001283565b826008810192821562001135579160200282015b828111156200113557825162001124908390603462001147565b50916020019190600101906200110a565b5062001143929150620011f0565b5090565b82805482825590600052602060002090601f01602090048101928215620011e25791602002820160005b83821115620011b157835183826101000a81548160ff021916908360ff160217905550926020019260010160208160000104928301926001030262001171565b8015620011e05782816101000a81549060ff0219169055600101602081600001049283019260010302620011b1565b505b50620011439291506200121b565b6200121891905b80821115620011435760006200120e82826200123c565b50600101620011f7565b90565b6200121891905b808211156200114357805460ff1916815560010162001222565b50805460008255601f01602090049060005260206000209081019062001263919062001266565b50565b6200121891905b808211156200114357600081556001016200126d565b61091b80620012936000396000f3006080604052600436106100615763ffffffff7c010000000000000000000000000000000000000000000000000000000060003504166327af473c81146100665780636ee35e5b1461009a578063b3bbcd9a146100b8578063ef6537b514610120575b600080fd5b34801561007257600080fd5b5061008460043560243560443561014c565b6040805160ff9092168252519081900360200190f35b3480156100a657600080fd5b5061008460043560ff6024351661019c565b3480156100c457600080fd5b506100d0600435610236565b60408051602080825283518183015283519192839290830191858101910280838360005b8381101561010c5781810151838201526020016100f4565b505050509050019250505060405180910390f35b34801561012c57600080fd5b50610138600435610329565b604080519115158252519081900360200190f35b60086020528260005260406000208260088110151561016757fe5b0180548290811061017457fe5b906000526020600020906020918282040191900692509250509054906101000a900460ff1681565b60008060ff8316600881106101ad57fe5b01600860008581526020019081526020016000208360ff166008811015156101d157fe5b019080546101e092919061078f565b5060008381526008602081905260409091209060ff841690811061020057fe5b018054600a90811061020e57fe5b90600052602060002090602091828204019190069054906101000a900460ff16905092915050565b60408051600480825260a08201909252606091829160009182919060208201608080388339019050509250600090505b60048110156102ab576102788561034d565b91506102848583610437565b838281518110151561029257fe5b60ff909216602092830290910190910152600101610266565b7f2e056dd3cf909b4ddc28418f426accd1c32e0bfece9afd4a80e3dd2fdea509ef836040518080602001828103825283818151815260200191508051906020019060200280838360005b8381101561030d5781810151838201526020016102f5565b505050509050019250505060405180910390a150909392505050565b600081815260086020819052604082206103449183906107ed565b50600192915050565b6040805160088082526101208201909252600091606091839182918291602082016101008038833901905050935060009250600091505b60088210156103dc57600086815260086020819052604090912090839081106103a957fe5b0154156103d1578184848151811015156103bf57fe5b60209081029091010152600192909201915b600190910190610384565b8215156103f2576103ec86610329565b50600892505b826001141561040357506000610414565b610411600184036000610644565b90505b838181518110151561042257fe5b90602001906020020151945050505050919050565b600080600080600080600080600860008b81526020019081526020016000208960088110151561046357fe5b0154600114156104ce5760008a8152600860208190526040909120908a90811061048957fe5b018054600090811061049757fe5b90600052602060002090602091828204019190069054906101000a900460ff1696506104c58a8a6000610708565b50869750610637565b60008a8152600860208190526040909120908a9081106104ea57fe5b01549550600094508493505b841515610514576105078685610644565b94506001840193506104f6565b60008a8152600860208190526040909120600019808801955088019350908a90811061053c57fe5b0180548490811061054957fe5b90600052602060002090602091828204019190069054906101000a900460ff1696508290505b818110156106275760008a8152600860208190526040909120908a90811061059357fe5b018054600183019081106105a357fe5b90600052602060002090602091828204019190069054906101000a900460ff16600860008c81526020019081526020016000208a6008811015156105e357fe5b018054839081106105f057fe5b90600052602060002090602091828204019190066101000a81548160ff021916908360ff160217905550808060010191505061056f565b6106328a8a84610708565b508697505b5050505050505092915050565b6040805160001943014060208083019190915242828401526c010000000000000000000000004102606083015244607483015260948083018590528351808403909101815260b49092019283905281516000938492849282918401908083835b602083106106c35780518252601f1990920191602091820191016106a4565b5181516020939093036101000a600019018019909116921691909117905260405192018290039091209350879250839150508115156106fe57fe5b0695945050505050565b60008381526008602081905260408220908490811061072357fe5b0180548390811061073057fe5b90600052602060002090602091828204019190066101000a81549060ff0219169055600860008581526020019081526020016000208360088110151561077257fe5b01805490610784906000198301610830565b506001949350505050565b82805482825590600052602060002090601f016020900481019282156107dd57600052602060002091601f016020900482015b828111156107dd5782548255916001019190600101906107c2565b506107e9929150610869565b5090565b8260088101928215610824579182015b82811115610824578254610814908390859061078f565b50916001019190600101906107fd565b506107e992915061088a565b81548183558181111561086457601f016020900481601f0160209004836000526020600020918201910161086491906108ad565b505050565b61088791905b808211156107e957805460ff1916815560010161086f565b90565b61088791905b808211156107e95760006108a482826108c7565b50600101610890565b61088791905b808211156107e957600081556001016108b3565b50805460008255601f0160209004906000526020600020908101906108ec91906108ad565b505600a165627a7a723058208eea3fd71d4391dc58753a1a2817688328477f048205f402387ae20b5e124d5b0029",
  "source": "pragma solidity 0.4.24;\n\ncontract Baccarat3 {\n    uint8[][POKERS_NUM] private pokers = [\n\t\t[\n\t\t\t0x01, 0x02, 0x03, 0x04, 0x05, 0x06, 0x07, 0x08, 0x09, 0x0A, 0x0B, 0x0C, 0x0D,\n\t\t\t0x11, 0x12, 0x13, 0x14, 0x15, 0x16, 0x17, 0x18, 0x19, 0x1A, 0x1B, 0x1C, 0x1D,\n\t\t\t0x21, 0x22, 0x23, 0x24, 0x25, 0x26, 0x27, 0x28, 0x29, 0x2A, 0x2B, 0x2C, 0x2D,\n\t\t\t0x31, 0x32, 0x33, 0x34, 0x35, 0x36, 0x37, 0x38, 0x39, 0x3A, 0x3B, 0x3C, 0x3D\n        ],\n\n\t\t[\n\t\t\t0x01, 0x02, 0x03, 0x04, 0x05, 0x06, 0x07, 0x08, 0x09, 0x0A, 0x0B, 0x0C, 0x0D,\n\t\t\t0x11, 0x12, 0x13, 0x14, 0x15, 0x16, 0x17, 0x18, 0x19, 0x1A, 0x1B, 0x1C, 0x1D,\n\t\t\t0x21, 0x22, 0x23, 0x24, 0x25, 0x26, 0x27, 0x28, 0x29, 0x2A, 0x2B, 0x2C, 0x2D,\n\t\t\t0x31, 0x32, 0x33, 0x34, 0x35, 0x36, 0x37, 0x38, 0x39, 0x3A, 0x3B, 0x3C, 0x3D\n        ],\n\t\t\n\t\t[\n\t\t\t0x01, 0x02, 0x03, 0x04, 0x05, 0x06, 0x07, 0x08, 0x09, 0x0A, 0x0B, 0x0C, 0x0D,\n\t\t\t0x11, 0x12, 0x13, 0x14, 0x15, 0x16, 0x17, 0x18, 0x19, 0x1A, 0x1B, 0x1C, 0x1D,\n\t\t\t0x21, 0x22, 0x23, 0x24, 0x25, 0x26, 0x27, 0x28, 0x29, 0x2A, 0x2B, 0x2C, 0x2D,\n\t\t\t0x31, 0x32, 0x33, 0x34, 0x35, 0x36, 0x37, 0x38, 0x39, 0x3A, 0x3B, 0x3C, 0x3D\n        ],\n\t\t\n\t\t[\n\t\t\t0x01, 0x02, 0x03, 0x04, 0x05, 0x06, 0x07, 0x08, 0x09, 0x0A, 0x0B, 0x0C, 0x0D,\n\t\t\t0x11, 0x12, 0x13, 0x14, 0x15, 0x16, 0x17, 0x18, 0x19, 0x1A, 0x1B, 0x1C, 0x1D,\n\t\t\t0x21, 0x22, 0x23, 0x24, 0x25, 0x26, 0x27, 0x28, 0x29, 0x2A, 0x2B, 0x2C, 0x2D,\n\t\t\t0x31, 0x32, 0x33, 0x34, 0x35, 0x36, 0x37, 0x38, 0x39, 0x3A, 0x3B, 0x3C, 0x3D\n        ],\n\n\t\t[\n\t\t\t0x01, 0x02, 0x03, 0x04, 0x05, 0x06, 0x07, 0x08, 0x09, 0x0A, 0x0B, 0x0C, 0x0D,\n\t\t\t0x11, 0x12, 0x13, 0x14, 0x15, 0x16, 0x17, 0x18, 0x19, 0x1A, 0x1B, 0x1C, 0x1D,\n\t\t\t0x21, 0x22, 0x23, 0x24, 0x25, 0x26, 0x27, 0x28, 0x29, 0x2A, 0x2B, 0x2C, 0x2D,\n\t\t\t0x31, 0x32, 0x33, 0x34, 0x35, 0x36, 0x37, 0x38, 0x39, 0x3A, 0x3B, 0x3C, 0x3D\n        ],\n\n\t\t[\n\t\t\t0x01, 0x02, 0x03, 0x04, 0x05, 0x06, 0x07, 0x08, 0x09, 0x0A, 0x0B, 0x0C, 0x0D,\n\t\t\t0x11, 0x12, 0x13, 0x14, 0x15, 0x16, 0x17, 0x18, 0x19, 0x1A, 0x1B, 0x1C, 0x1D,\n\t\t\t0x21, 0x22, 0x23, 0x24, 0x25, 0x26, 0x27, 0x28, 0x29, 0x2A, 0x2B, 0x2C, 0x2D,\n\t\t\t0x31, 0x32, 0x33, 0x34, 0x35, 0x36, 0x37, 0x38, 0x39, 0x3A, 0x3B, 0x3C, 0x3D\n        ],\n\n\t\t[\n\t\t\t0x01, 0x02, 0x03, 0x04, 0x05, 0x06, 0x07, 0x08, 0x09, 0x0A, 0x0B, 0x0C, 0x0D,\n\t\t\t0x11, 0x12, 0x13, 0x14, 0x15, 0x16, 0x17, 0x18, 0x19, 0x1A, 0x1B, 0x1C, 0x1D,\n\t\t\t0x21, 0x22, 0x23, 0x24, 0x25, 0x26, 0x27, 0x28, 0x29, 0x2A, 0x2B, 0x2C, 0x2D,\n\t\t\t0x31, 0x32, 0x33, 0x34, 0x35, 0x36, 0x37, 0x38, 0x39, 0x3A, 0x3B, 0x3C, 0x3D\n        ],\n\n\t\t[\n\t\t\t0x01, 0x02, 0x03, 0x04, 0x05, 0x06, 0x07, 0x08, 0x09, 0x0A, 0x0B, 0x0C, 0x0D,\n\t\t\t0x11, 0x12, 0x13, 0x14, 0x15, 0x16, 0x17, 0x18, 0x19, 0x1A, 0x1B, 0x1C, 0x1D,\n\t\t\t0x21, 0x22, 0x23, 0x24, 0x25, 0x26, 0x27, 0x28, 0x29, 0x2A, 0x2B, 0x2C, 0x2D,\n\t\t\t0x31, 0x32, 0x33, 0x34, 0x35, 0x36, 0x37, 0x38, 0x39, 0x3A, 0x3B, 0x3C, 0x3D\n\t\t   \n        ]\n\t];\n\n\tuint8 private constant POKERS_NUM = 8;\n\n\tmapping(uint256 => uint8[][POKERS_NUM]) public cards;\n\n\tevent LogShuffle(uint256 shuffle);\n\tevent LogCards(uint8[] card);\n\n\tfunction shuffle(uint256 _roomId) \n\t    public \n\t\treturns (bool) \n\t{\n    \tcards[_roomId] = pokers;\n\t\treturn true;\n\t}\n\n\tfunction shuffle(uint256 _roomId, uint8 _pokersNum) \n\t    public \n\t\treturns (uint8) \n\t{\n        cards[_roomId][_pokersNum] = pokers[_pokersNum];    \t\n\t\treturn cards[_roomId][_pokersNum][10];\n\t}\n\n\tfunction dealCard(uint256 _roomId) \n\t    public \n\t\treturns (uint8[]) \n\t{\n\t\tuint8[] memory local_cards = new uint8[](4);\n        uint256 local_pokersNum;\n\t\tfor(uint256 i=0; i<4; i++) {\n\t\t\tlocal_pokersNum = getPokersNum(_roomId); \n\t\t\tlocal_cards[i] = getCard(_roomId, local_pokersNum); \n\t\t}\n\t\temit LogCards(local_cards);\n\t\treturn local_cards;\n\t}\n\n\tfunction getCard(uint256 _roomId, uint256 _pokersNum) \n\t    private \n\t\treturns(uint8) \n\t{\n\t\tuint8 local_card;\n       \n        if(cards[_roomId][_pokersNum].length == 1) {\n\t\t    local_card = cards[_roomId][_pokersNum][0];\n\t\t\tremoveCard(_roomId, _pokersNum, 0);\n\t\t\treturn local_card;\n\t\t}\n\t\tuint256 local_upper = cards[_roomId][_pokersNum].length;\n\t\tuint256 local_randomNum = 0;\n\t\tuint256 local_seed = 0;\n\n\t\twhile(local_randomNum == 0) {\n\t        local_randomNum = random(local_upper, local_seed);\t\n\t\t\tlocal_seed += 1;\n\t\t}\n        \n        uint256 local_index = local_randomNum - 1;\n        uint256 local_maxLoop = local_upper - 1;\t\t\n\n\t\tlocal_card = cards[_roomId][_pokersNum][local_index];\n        //将后面的牌往前移\n\t\tfor(uint256 i=local_index; i<local_maxLoop; i++) {\n\t        cards[_roomId][_pokersNum][i] = cards[_roomId][_pokersNum][i+1];\t\n\t\t}\n        removeCard(_roomId, _pokersNum, local_maxLoop);\n\t\treturn local_card;\n\t}\n\n    function removeCard(uint256 _roomId, uint256 _pokersNum, uint256 _index) \n\t    private\n\t\treturns (bool)\n\t{\n        delete cards[_roomId][_pokersNum][_index];\t\n\t\tcards[_roomId][_pokersNum].length--;\n\n\t\treturn true;\n\t}\n\n\tfunction getPokersNum(uint256 _roomId) \n\t    private \n\t\treturns (uint256) \n\t{\n        uint256[] memory local_pokers = new uint256[](POKERS_NUM);\n        uint256 local_index = 0;\n\n        for(uint256 i=0; i<POKERS_NUM; i++) {\n\t        if(cards[_roomId][i].length != 0) {\n        \t    local_pokers[local_index] = i;\n\t\t\t\tlocal_index += 1;\n\t\t\t}\t\n\t\t}        \n\t\tif(local_index == 0) {\n\t\t\tshuffle(_roomId);\n\t\t\tlocal_index = POKERS_NUM;\n\t\t\t//emit LogShuffle(local_index);\n\t\t}\n\t\tuint256 local_key;\n\t\tif(local_index==1) {\n\t\t    local_key = 0;\n\t\t} else {\n\t\t   \tlocal_key = random(local_index-1, 0);\n\t\t}\n        \n\t\treturn local_pokers[local_key];\n\t}\n\n\t//产生一个随机数\n\tfunction random(uint256 _upper, uint256 _seed)\n\t    private\n\t\tview\n        returns (uint256 local_num)\n\t{\n\t\tbytes memory local_randSeed = abi.encodePacked(\n\t\t\tblockhash(block.number - 1),\n\t\t\tnow,\n\t\t\tblock.coinbase,\n\t\t\tblock.difficulty,\n\t\t\t_seed\n\t\t);\n        uint256 seed = uint256(keccak256(local_randSeed));    \t\n\t\tlocal_num = (seed % _upper);\n\t}\n\n\t\n\n}\n",
  "sourcePath": "/Users/knight/Documents/geth/smart-contracts/eth-baccarat/contracts/Baccarat3.sol",
  "compiler": {
    "name": "solc",
    "version": "0.4.24+commit.e67f0147.Emscripten.clang"
  },
  "schemaVersion": "2.0.1",
  "updatedAt": "2018-08-08T02:40:58.512Z"
}