{
  "contractName": "Baccarat3",
  "abi": [
    {
      "constant": true,
      "inputs": [
        {
          "name": "",
          "type": "uint256"
        },
        {
          "name": "",
          "type": "uint256"
        },
        {
          "name": "",
          "type": "uint256"
        }
      ],
      "name": "cards",
      "outputs": [
        {
          "name": "",
          "type": "uint8"
        }
      ],
      "payable": false,
      "stateMutability": "view",
      "type": "function"
    },
    {
      "anonymous": false,
      "inputs": [
        {
          "indexed": false,
          "name": "bankerCards",
          "type": "uint8[]"
        },
        {
          "indexed": false,
          "name": "playerCards",
          "type": "uint8[]"
        },
        {
          "indexed": false,
          "name": "bankerPoints",
          "type": "uint8"
        },
        {
          "indexed": false,
          "name": "playerPoints",
          "type": "uint8"
        },
        {
          "indexed": false,
          "name": "winner",
          "type": "uint8"
        },
        {
          "indexed": false,
          "name": "bankerPairs",
          "type": "bool"
        },
        {
          "indexed": false,
          "name": "playerPairs",
          "type": "bool"
        }
      ],
      "name": "LogWinner",
      "type": "event"
    },
    {
      "constant": false,
      "inputs": [
        {
          "name": "_roomId",
          "type": "uint256"
        }
      ],
      "name": "shuffle",
      "outputs": [
        {
          "name": "",
          "type": "bool"
        }
      ],
      "payable": false,
      "stateMutability": "nonpayable",
      "type": "function"
    },
    {
      "constant": false,
      "inputs": [
        {
          "name": "_win",
          "type": "uint8"
        }
      ],
      "name": "bet",
      "outputs": [
        {
          "name": "",
          "type": "bool"
        }
      ],
      "payable": true,
      "stateMutability": "payable",
      "type": "function"
    },
    {
      "constant": false,
      "inputs": [
        {
          "name": "_roomId",
          "type": "uint256"
        }
      ],
      "name": "dealCard",
      "outputs": [],
      "payable": false,
      "stateMutability": "nonpayable",
      "type": "function"
    }
  ],
  "bytecode": "0x60806040526101006040519081016040528061068060405190810160405280600160ff168152602001600260ff168152602001600360ff168152602001600460ff168152602001600560ff168152602001600660ff168152602001600760ff168152602001600860ff168152602001600960ff168152602001600a60ff168152602001600b60ff168152602001600c60ff168152602001600d60ff168152602001601160ff168152602001601260ff168152602001601360ff168152602001601460ff168152602001601560ff168152602001601660ff168152602001601760ff168152602001601860ff168152602001601960ff168152602001601a60ff168152602001601b60ff168152602001601c60ff168152602001601d60ff168152602001602160ff168152602001602260ff168152602001602360ff168152602001602460ff168152602001602560ff168152602001602660ff168152602001602760ff168152602001602860ff168152602001602960ff168152602001602a60ff168152602001602b60ff168152602001602c60ff168152602001602d60ff168152602001603160ff168152602001603260ff168152602001603360ff168152602001603460ff168152602001603560ff168152602001603660ff168152602001603760ff168152602001603860ff168152602001603960ff168152602001603a60ff168152602001603b60ff168152602001603c60ff168152602001603d60ff16815250815260200161068060405190810160405280600160ff168152602001600260ff168152602001600360ff168152602001600460ff168152602001600560ff168152602001600660ff168152602001600760ff168152602001600860ff168152602001600960ff168152602001600a60ff168152602001600b60ff168152602001600c60ff168152602001600d60ff168152602001601160ff168152602001601260ff168152602001601360ff168152602001601460ff168152602001601560ff168152602001601660ff168152602001601760ff168152602001601860ff168152602001601960ff168152602001601a60ff168152602001601b60ff168152602001601c60ff168152602001601d60ff168152602001602160ff168152602001602260ff168152602001602360ff168152602001602460ff168152602001602560ff168152602001602660ff168152602001602760ff168152602001602860ff168152602001602960ff168152602001602a60ff168152602001602b60ff168152602001602c60ff168152602001602d60ff168152602001603160ff168152602001603260ff168152602001603360ff168152602001603460ff168152602001603560ff168152602001603660ff168152602001603760ff168152602001603860ff168152602001603960ff168152602001603a60ff168152602001603b60ff168152602001603c60ff168152602001603d60ff16815250815260200161068060405190810160405280600160ff168152602001600260ff168152602001600360ff168152602001600460ff168152602001600560ff168152602001600660ff168152602001600760ff168152602001600860ff168152602001600960ff168152602001600a60ff168152602001600b60ff168152602001600c60ff168152602001600d60ff168152602001601160ff168152602001601260ff168152602001601360ff168152602001601460ff168152602001601560ff168152602001601660ff168152602001601760ff168152602001601860ff168152602001601960ff168152602001601a60ff168152602001601b60ff168152602001601c60ff168152602001601d60ff168152602001602160ff168152602001602260ff168152602001602360ff168152602001602460ff168152602001602560ff168152602001602660ff168152602001602760ff168152602001602860ff168152602001602960ff168152602001602a60ff168152602001602b60ff168152602001602c60ff168152602001602d60ff168152602001603160ff168152602001603260ff168152602001603360ff168152602001603460ff168152602001603560ff168152602001603660ff168152602001603760ff168152602001603860ff168152602001603960ff168152602001603a60ff168152602001603b60ff168152602001603c60ff168152602001603d60ff16815250815260200161068060405190810160405280600160ff168152602001600260ff168152602001600360ff168152602001600460ff168152602001600560ff168152602001600660ff168152602001600760ff168152602001600860ff168152602001600960ff168152602001600a60ff168152602001600b60ff168152602001600c60ff168152602001600d60ff168152602001601160ff168152602001601260ff168152602001601360ff168152602001601460ff168152602001601560ff168152602001601660ff168152602001601760ff168152602001601860ff168152602001601960ff168152602001601a60ff168152602001601b60ff168152602001601c60ff168152602001601d60ff168152602001602160ff168152602001602260ff168152602001602360ff168152602001602460ff168152602001602560ff168152602001602660ff168152602001602760ff168152602001602860ff168152602001602960ff168152602001602a60ff168152602001602b60ff168152602001602c60ff168152602001602d60ff168152602001603160ff168152602001603260ff168152602001603360ff168152602001603460ff168152602001603560ff168152602001603660ff168152602001603760ff168152602001603860ff168152602001603960ff168152602001603a60ff168152602001603b60ff168152602001603c60ff168152602001603d60ff16815250815260200161068060405190810160405280600160ff168152602001600260ff168152602001600360ff168152602001600460ff168152602001600560ff168152602001600660ff168152602001600760ff168152602001600860ff168152602001600960ff168152602001600a60ff168152602001600b60ff168152602001600c60ff168152602001600d60ff168152602001601160ff168152602001601260ff168152602001601360ff168152602001601460ff168152602001601560ff168152602001601660ff168152602001601760ff168152602001601860ff168152602001601960ff168152602001601a60ff168152602001601b60ff168152602001601c60ff168152602001601d60ff168152602001602160ff168152602001602260ff168152602001602360ff168152602001602460ff168152602001602560ff168152602001602660ff168152602001602760ff168152602001602860ff168152602001602960ff168152602001602a60ff168152602001602b60ff168152602001602c60ff168152602001602d60ff168152602001603160ff168152602001603260ff168152602001603360ff168152602001603460ff168152602001603560ff168152602001603660ff168152602001603760ff168152602001603860ff168152602001603960ff168152602001603a60ff168152602001603b60ff168152602001603c60ff168152602001603d60ff16815250815260200161068060405190810160405280600160ff168152602001600260ff168152602001600360ff168152602001600460ff168152602001600560ff168152602001600660ff168152602001600760ff168152602001600860ff168152602001600960ff168152602001600a60ff168152602001600b60ff168152602001600c60ff168152602001600d60ff168152602001601160ff168152602001601260ff168152602001601360ff168152602001601460ff168152602001601560ff168152602001601660ff168152602001601760ff168152602001601860ff168152602001601960ff168152602001601a60ff168152602001601b60ff168152602001601c60ff168152602001601d60ff168152602001602160ff168152602001602260ff168152602001602360ff168152602001602460ff168152602001602560ff168152602001602660ff168152602001602760ff168152602001602860ff168152602001602960ff168152602001602a60ff168152602001602b60ff168152602001602c60ff168152602001602d60ff168152602001603160ff168152602001603260ff168152602001603360ff168152602001603460ff168152602001603560ff168152602001603660ff168152602001603760ff168152602001603860ff168152602001603960ff168152602001603a60ff168152602001603b60ff168152602001603c60ff168152602001603d60ff16815250815260200161068060405190810160405280600160ff168152602001600260ff168152602001600360ff168152602001600460ff168152602001600560ff168152602001600660ff168152602001600760ff168152602001600860ff168152602001600960ff168152602001600a60ff168152602001600b60ff168152602001600c60ff168152602001600d60ff168152602001601160ff168152602001601260ff168152602001601360ff168152602001601460ff168152602001601560ff168152602001601660ff168152602001601760ff168152602001601860ff168152602001601960ff168152602001601a60ff168152602001601b60ff168152602001601c60ff168152602001601d60ff168152602001602160ff168152602001602260ff168152602001602360ff168152602001602460ff168152602001602560ff168152602001602660ff168152602001602760ff168152602001602860ff168152602001602960ff168152602001602a60ff168152602001602b60ff168152602001602c60ff168152602001602d60ff168152602001603160ff168152602001603260ff168152602001603360ff168152602001603460ff168152602001603560ff168152602001603660ff168152602001603760ff168152602001603860ff168152602001603960ff168152602001603a60ff168152602001603b60ff168152602001603c60ff168152602001603d60ff16815250815260200161068060405190810160405280600160ff168152602001600260ff168152602001600360ff168152602001600460ff168152602001600560ff168152602001600660ff168152602001600760ff168152602001600860ff168152602001600960ff168152602001600a60ff168152602001600b60ff168152602001600c60ff168152602001600d60ff168152602001601160ff168152602001601260ff168152602001601360ff168152602001601460ff168152602001601560ff168152602001601660ff168152602001601760ff168152602001601860ff168152602001601960ff168152602001601a60ff168152602001601b60ff168152602001601c60ff168152602001601d60ff168152602001602160ff168152602001602260ff168152602001602360ff168152602001602460ff168152602001602560ff168152602001602660ff168152602001602760ff168152602001602860ff168152602001602960ff168152602001602a60ff168152602001602b60ff168152602001602c60ff168152602001602d60ff168152602001603160ff168152602001603260ff168152602001603360ff168152602001603460ff168152602001603560ff168152602001603660ff168152602001603760ff168152602001603860ff168152602001603960ff168152602001603a60ff168152602001603b60ff168152602001603c60ff168152602001603d60ff168152508152506000906008620010e1929190620010f6565b50348015620010ef57600080fd5b5062001283565b826008810192821562001135579160200282015b828111156200113557825162001124908390603462001147565b50916020019190600101906200110a565b5062001143929150620011f0565b5090565b82805482825590600052602060002090601f01602090048101928215620011e25791602002820160005b83821115620011b157835183826101000a81548160ff021916908360ff160217905550926020019260010160208160000104928301926001030262001171565b8015620011e05782816101000a81549060ff0219169055600101602081600001049283019260010302620011b1565b505b50620011439291506200121b565b6200121891905b80821115620011435760006200120e82826200123c565b50600101620011f7565b90565b6200121891905b808211156200114357805460ff1916815560010162001222565b50805460008255601f01602090049060005260206000209081019062001263919062001266565b50565b6200121891905b808211156200114357600081556001016200126d565b610ce280620012936000396000f3006080604052600436106100615763ffffffff7c010000000000000000000000000000000000000000000000000000000060003504166327af473c8114610066578063b3bbcd9a1461009a578063d0821b0e146100b4578063ef6537b5146100d6575b600080fd5b34801561007257600080fd5b506100846004356024356044356100ee565b6040805160ff9092168252519081900360200190f35b3480156100a657600080fd5b506100b260043561013e565b005b6100c260ff600435166103b9565b604080519115158252519081900360200190f35b3480156100e257600080fd5b506100c26004356103bf565b60086020528260005260406000208260088110151561010957fe5b0180548290811061011657fe5b906000526020600020906020918282040191900692509250509054906101000a900460ff1681565b60608060008060008060006003604051908082528060200260200182016040528015610174578160200160208202803883390190505b506040805160038082526080820190925291985060208201606080388339019050509550600094505b6002851015610201576101af886103e3565b87868151811015156101bd57fe5b60ff9092166020928302909101909101526101d7886103e3565b86868151811015156101e557fe5b60ff90921660209283029091019091015260019094019361019d565b61020a866105f9565b9350831561023c5761021b886103e3565b86600281518110151561022a57fe5b60ff9092166020928302909101909101525b6102468688610647565b9350831561027857610257886103e3565b87600281518110151561026657fe5b60ff9092166020928302909101909101525b610282878761079b565b925061028d876107f1565b9150610298866107f1565b90507fa90eb73c5a1862a0ee4e3c5570fdecd3462c81f2618563a24b3c311016724d4587876102c68a610855565b6102cf8a610855565b8787876040518080602001806020018860ff1660ff1681526020018760ff1660ff16815260200186600481111561030257fe5b60ff168152602001851515151581526020018415151515815260200183810383528a818151815260200191508051906020019060200280838360005b8381101561035657818101518382015260200161033e565b50505050905001838103825289818151815260200191508051906020019060200280838360005b8381101561039557818101518382015260200161037d565b50505050905001995050505050505050505060405180910390a15050505050505050565b50600190565b600081815260086020819052604082206103da918390610b56565b50600192915050565b60008060008060008060008060006103fa8a6108c3565b60008b81526008602081905260409091209198508890811061041857fe5b0154600114156104835760008a8152600860208190526040909120908890811061043e57fe5b018054600090811061044c57fe5b90600052602060002090602091828204019190069054906101000a900460ff16975061047a8a8860006109ad565b508798506105ec565b60008a8152600860208190526040909120908890811061049f57fe5b01549550600094508493505b8415156104c9576104bc8685610a34565b94506001840193506104ab565b60008a815260086020819052604090912060001980880195508801935090889081106104f157fe5b018054849081106104fe57fe5b90600052602060002090602091828204019190069054906101000a900460ff1697508290505b818110156105dc5760008a8152600860208190526040909120908890811061054857fe5b0180546001830190811061055857fe5b90600052602060002090602091828204019190069054906101000a900460ff16600860008c81526020019081526020016000208860088110151561059857fe5b018054839081106105a557fe5b90600052602060002090602091828204019190066101000a81548160ff021916908360ff1602179055508080600101915050610524565b6105e78a88846109ad565b508798505b5050505050505050919050565b600080600061060784610af8565b9150600282111561061b5760009250610640565b61062484610855565b905060058160ff16111561063b5760009250610640565b600192505b5050919050565b600080600080600061065886610af8565b9350600284111561066c5760009450610791565b61067586610855565b925060038360ff16101561068c5760019450610791565b60068360ff1611156106a15760009450610791565b6106aa87610af8565b915060038210156106be5760009450610791565b6106df8760028151811015156106d057fe5b90602001906020020151610b37565b60ff1690508260ff1660031480156106f75750806008145b156107055760009450610791565b8260ff166004148015610719575060018111155b80610725575060088110155b156107335760009450610791565b8260ff166005148015610747575060038111155b80610753575060088110155b156107615760009450610791565b8260ff16600614801561077e5750600681108061077e5750600781115b1561078c5760009450610791565b600194505b5050505092915050565b60008060006107a985610855565b91506107b484610855565b90508060ff168260ff1611156107cd57600192506107e9565b8060ff168260ff1610156107e457600292506107e9565b600092505b505092915050565b6000806107fd83610af8565b90506002811061084a5782600181518110151561081657fe5b90602001906020020151600f1660ff1683600081518110151561083557fe5b60209081029091010151600f1614915061084f565b600091505b50919050565b600080808061086385610af8565b9150600090505b818110156108b3576000858281518110151561088257fe5b9060200190602002015160ff1611156108ab576108a685828151811015156106d057fe5b830192505b60010161086a565b600a60ff84160695945050505050565b6040805160088082526101208201909252600091606091839182918291602082016101008038833901905050935060009250600091505b6008821015610952576000868152600860208190526040909120908390811061091f57fe5b0154156109475781848481518110151561093557fe5b60209081029091010152600192909201915b6001909101906108fa565b82151561096857610962866103bf565b50600892505b82600114156109795750600061098a565b610987600184036000610a34565b90505b838181518110151561099857fe5b90602001906020020151945050505050919050565b6000838152600860208190526040822090849081106109c857fe5b018054839081106109d557fe5b90600052602060002090602091828204019190066101000a81549060ff02191690556008600085815260200190815260200160002083600881101515610a1757fe5b01805490610a29906000198301610b9d565b506001949350505050565b6040805160001943014060208083019190915242828401526c010000000000000000000000004102606083015244607483015260948083018590528351808403909101815260b49092019283905281516000938492849282918401908083835b60208310610ab35780518252601f199092019160209182019101610a94565b5181516020939093036101000a60001901801990911692169190911790526040519201829003909120935087925083915050811515610aee57fe5b0695945050505050565b6000805b825181101561084f5760008382815181101515610b1557fe5b9060200190602002015160ff161115610b2f576001820191505b600101610afc565b60006009600f831611610b4d5781600f16610b50565b60005b92915050565b8260088101928215610b8d579182015b82811115610b8d578254610b7d9083908590610bd6565b5091600101919060010190610b66565b50610b99929150610c30565b5090565b815481835581811115610bd157601f016020900481601f01602090048360005260206000209182019101610bd19190610c56565b505050565b82805482825590600052602060002090601f01602090048101928215610c2457600052602060002091601f016020900482015b82811115610c24578254825591600101919060010190610c09565b50610b99929150610c70565b610c5391905b80821115610b99576000610c4a8282610c8e565b50600101610c36565b90565b610c5391905b80821115610b995760008155600101610c5c565b610c5391905b80821115610b9957805460ff19168155600101610c76565b50805460008255601f016020900490600052602060002090810190610cb39190610c56565b505600a165627a7a72305820c9545d48caccd9c529f9012d7e1f2c949e885f0bb93a1547e8f37f0dabc64ca40029",
  "source": "pragma solidity 0.4.24;\n\ncontract Baccarat3 {\n    uint8[][POKERS_NUM] private pokers = [\n\t\t[\n\t\t\t0x01, 0x02, 0x03, 0x04, 0x05, 0x06, 0x07, 0x08, 0x09, 0x0A, 0x0B, 0x0C, 0x0D,\n\t\t\t0x11, 0x12, 0x13, 0x14, 0x15, 0x16, 0x17, 0x18, 0x19, 0x1A, 0x1B, 0x1C, 0x1D,\n\t\t\t0x21, 0x22, 0x23, 0x24, 0x25, 0x26, 0x27, 0x28, 0x29, 0x2A, 0x2B, 0x2C, 0x2D,\n\t\t\t0x31, 0x32, 0x33, 0x34, 0x35, 0x36, 0x37, 0x38, 0x39, 0x3A, 0x3B, 0x3C, 0x3D\n        ],\n\n\t\t[\n\t\t\t0x01, 0x02, 0x03, 0x04, 0x05, 0x06, 0x07, 0x08, 0x09, 0x0A, 0x0B, 0x0C, 0x0D,\n\t\t\t0x11, 0x12, 0x13, 0x14, 0x15, 0x16, 0x17, 0x18, 0x19, 0x1A, 0x1B, 0x1C, 0x1D,\n\t\t\t0x21, 0x22, 0x23, 0x24, 0x25, 0x26, 0x27, 0x28, 0x29, 0x2A, 0x2B, 0x2C, 0x2D,\n\t\t\t0x31, 0x32, 0x33, 0x34, 0x35, 0x36, 0x37, 0x38, 0x39, 0x3A, 0x3B, 0x3C, 0x3D\n        ],\n\t\t\n\t\t[\n\t\t\t0x01, 0x02, 0x03, 0x04, 0x05, 0x06, 0x07, 0x08, 0x09, 0x0A, 0x0B, 0x0C, 0x0D,\n\t\t\t0x11, 0x12, 0x13, 0x14, 0x15, 0x16, 0x17, 0x18, 0x19, 0x1A, 0x1B, 0x1C, 0x1D,\n\t\t\t0x21, 0x22, 0x23, 0x24, 0x25, 0x26, 0x27, 0x28, 0x29, 0x2A, 0x2B, 0x2C, 0x2D,\n\t\t\t0x31, 0x32, 0x33, 0x34, 0x35, 0x36, 0x37, 0x38, 0x39, 0x3A, 0x3B, 0x3C, 0x3D\n        ],\n\t\t\n\t\t[\n\t\t\t0x01, 0x02, 0x03, 0x04, 0x05, 0x06, 0x07, 0x08, 0x09, 0x0A, 0x0B, 0x0C, 0x0D,\n\t\t\t0x11, 0x12, 0x13, 0x14, 0x15, 0x16, 0x17, 0x18, 0x19, 0x1A, 0x1B, 0x1C, 0x1D,\n\t\t\t0x21, 0x22, 0x23, 0x24, 0x25, 0x26, 0x27, 0x28, 0x29, 0x2A, 0x2B, 0x2C, 0x2D,\n\t\t\t0x31, 0x32, 0x33, 0x34, 0x35, 0x36, 0x37, 0x38, 0x39, 0x3A, 0x3B, 0x3C, 0x3D\n        ],\n\n\t\t[\n\t\t\t0x01, 0x02, 0x03, 0x04, 0x05, 0x06, 0x07, 0x08, 0x09, 0x0A, 0x0B, 0x0C, 0x0D,\n\t\t\t0x11, 0x12, 0x13, 0x14, 0x15, 0x16, 0x17, 0x18, 0x19, 0x1A, 0x1B, 0x1C, 0x1D,\n\t\t\t0x21, 0x22, 0x23, 0x24, 0x25, 0x26, 0x27, 0x28, 0x29, 0x2A, 0x2B, 0x2C, 0x2D,\n\t\t\t0x31, 0x32, 0x33, 0x34, 0x35, 0x36, 0x37, 0x38, 0x39, 0x3A, 0x3B, 0x3C, 0x3D\n        ],\n\n\t\t[\n\t\t\t0x01, 0x02, 0x03, 0x04, 0x05, 0x06, 0x07, 0x08, 0x09, 0x0A, 0x0B, 0x0C, 0x0D,\n\t\t\t0x11, 0x12, 0x13, 0x14, 0x15, 0x16, 0x17, 0x18, 0x19, 0x1A, 0x1B, 0x1C, 0x1D,\n\t\t\t0x21, 0x22, 0x23, 0x24, 0x25, 0x26, 0x27, 0x28, 0x29, 0x2A, 0x2B, 0x2C, 0x2D,\n\t\t\t0x31, 0x32, 0x33, 0x34, 0x35, 0x36, 0x37, 0x38, 0x39, 0x3A, 0x3B, 0x3C, 0x3D\n        ],\n\n\t\t[\n\t\t\t0x01, 0x02, 0x03, 0x04, 0x05, 0x06, 0x07, 0x08, 0x09, 0x0A, 0x0B, 0x0C, 0x0D,\n\t\t\t0x11, 0x12, 0x13, 0x14, 0x15, 0x16, 0x17, 0x18, 0x19, 0x1A, 0x1B, 0x1C, 0x1D,\n\t\t\t0x21, 0x22, 0x23, 0x24, 0x25, 0x26, 0x27, 0x28, 0x29, 0x2A, 0x2B, 0x2C, 0x2D,\n\t\t\t0x31, 0x32, 0x33, 0x34, 0x35, 0x36, 0x37, 0x38, 0x39, 0x3A, 0x3B, 0x3C, 0x3D\n        ],\n\n\t\t[\n\t\t\t0x01, 0x02, 0x03, 0x04, 0x05, 0x06, 0x07, 0x08, 0x09, 0x0A, 0x0B, 0x0C, 0x0D,\n\t\t\t0x11, 0x12, 0x13, 0x14, 0x15, 0x16, 0x17, 0x18, 0x19, 0x1A, 0x1B, 0x1C, 0x1D,\n\t\t\t0x21, 0x22, 0x23, 0x24, 0x25, 0x26, 0x27, 0x28, 0x29, 0x2A, 0x2B, 0x2C, 0x2D,\n\t\t\t0x31, 0x32, 0x33, 0x34, 0x35, 0x36, 0x37, 0x38, 0x39, 0x3A, 0x3B, 0x3C, 0x3D\n        ]\n\t];\n\n\tenum Winner {TIE, BANKER, PLAYER, BANKER_PAIR, PLAYER_PAIR}\n\n\tuint8 private constant POKERS_NUM = 8;\n\n\tmapping(uint256 => uint8[][POKERS_NUM]) public cards;\n\n\tevent LogWinner(\n\t    uint8[] bankerCards,\n\t\tuint8[] playerCards,\n\t\tuint8 bankerPoints,\n\t\tuint8 playerPoints,\n\t\tWinner winner,\n\t\tbool bankerPairs,\n\t\tbool playerPairs\n\t);\n\n\tfunction shuffle(uint256 _roomId) \n\t    public \n\t\treturns (bool) \n\t{\n    \tcards[_roomId] = pokers;\n\t\treturn true;\n\t}\n\n\t//下注\n\tfunction bet(Winner _win) \n\t    public\n\t\tpayable\n\t\treturns (bool)\n\t{\n        return true;\t\n\t}\n\n\t//开牌\n\tfunction dealCard(uint256 _roomId) \n\t    public \n\t{\n\t\tuint8[] memory local_bankerCards = new uint8[](3);\n\t\tuint8[] memory local_playerCards = new uint8[](3);\n\n\t\tfor (uint256 i=0; i<2; i++) {\n\t\t\tlocal_bankerCards[i] = getCard(_roomId); \n\t\t\tlocal_playerCards[i] = getCard(_roomId);\n\t\t}\n\n\t    bool need = playerNeedMore(local_playerCards);\n\t\tif (need) { //闲家需要博牌\n\t\t    local_playerCards[2] = getCard(_roomId);\n\t\t}\n\n\t\tneed = bankerNeedMore(local_playerCards, local_bankerCards);\n\t\tif (need) { //庄家需要博牌\n\t\t    local_bankerCards[2] = getCard(_roomId);\n\t\t}\n\n\t\tWinner local_winner = detectWinner(local_bankerCards, local_playerCards);\n\t\tbool local_bankerPair = isPair(local_bankerCards);\n\t\tbool local_playerPair = isPair(local_playerCards);\n\n\t\temit LogWinner(\n\t\t    local_bankerCards,\n\t\t\tlocal_playerCards,\n\t\t\tpoints(local_bankerCards),\n\t\t\tpoints(local_playerCards),\n\t\t\tlocal_winner,\n\t\t\tlocal_bankerPair,\n\t\t\tlocal_playerPair\n\t\t);\n\t}\n    \n\t//闲家是否需要博牌\n\tfunction playerNeedMore(uint8[] _cards)\n\t    private\n\t\tpure\n\t\treturns (bool)\n\t{\n        uint256 local_length = cardsLength(_cards);\t\n\t\tif (local_length > 2) {\n\t\t    return false;\n\t\t}\n\n\t\tuint8 local_points = points(_cards);\n\t\tif (local_points > 5 ) {\n\t\t    return false;\n\t\t}\n\n\t\treturn true; \n\t}\n\n\t//庄家是否需要博牌\n\tfunction bankerNeedMore(uint8[] _playerCards, uint8[] _bankerCards)\n\t    private\n\t\tpure\n\t\treturns (bool)\n\t{\n        uint256 local_bankerLength = cardsLength(_bankerCards);\t\n\t\tif (local_bankerLength > 2) { //已发3张牌，无需博牌\n\t\t    return false;\n\t\t}\n\n\t\tuint8 local_bankerPoints = points(_bankerCards);\n\t\tif (local_bankerPoints < 3 ) { //点数<3点，博牌\n\t\t    return true;\n\t\t}\n\n\t\tif (local_bankerPoints > 6) { //点数>6点，无需博牌\n\t\t    return false;\n\t\t}\n        \n\t\tuint256 local_playerLength = cardsLength(_playerCards);\n        if (local_playerLength < 3) {\n\t\t    return false;\n\t\t}\n        //闲家最后一张牌的点数\n\t\tuint256 local_playerLastCardPoint = points(_playerCards[2]);\n\n\t\tif (local_bankerPoints == 3 && local_playerLastCardPoint == 8) {\n\t\t    return false;\n\t\t}\n\n\t\tif (local_bankerPoints == 4 && local_playerLastCardPoint <= 1 || local_playerLastCardPoint >= 8) {\n\t\t    return false;\n\t\t}\n\n\t\tif (local_bankerPoints == 5 && local_playerLastCardPoint <= 3 || local_playerLastCardPoint >= 8) {\n\t\t    return false;\n\t\t}\n\n\t\tif (local_bankerPoints == 6 && (local_playerLastCardPoint < 6 || local_playerLastCardPoint > 7)) {\n\t\t    return false;\n\t\t}\n\n\t\treturn true;\n\t}\n\n\t//判断是否为对子\n\tfunction isPair(uint8[] _cards) \n\t    private\n\t\tpure\n\t\treturns (bool)\n\t{\n        uint256 local_length = cardsLength(_cards);\n\t\tif (local_length >= 2) {\n\t        return (_cards[0] & 0x0F) == (_cards[1] & 0x0F);\t\n\t\t}\n\n\t\treturn false;\n\t}\n\n\t//检测手上有几张牌\n\tfunction cardsLength(uint8[] _cards) \n\t    private\n\t\tpure\n\t\treturns (uint256 local_length) \n\t{\n\t    for (uint256 i=0; i<_cards.length; i++) {\n\t        if (_cards[i]>0) {\n\t\t\t    local_length += 1;\n\t\t\t}\t\n\t\t}\n\t}\n\n\t//获取一手牌的点数\n\tfunction points(uint8[] _cards)\n\t    private\n\t\tpure\n\t\treturns (uint8)\n\t{\n        uint8 local_points = 0;\t\n\t\tuint256 local_length = cardsLength(_cards);\n\n\t\tfor (uint256 i=0; i<local_length; i++) {\n\t\t\tif (_cards[i] > 0) {\n\t\t        local_points += points(_cards[i]);    \n\t\t\t}\n\t\t}\n\n\t\treturn local_points % 0x0A;\n\t}\n    \n\t//获取单张牌的点数\n\tfunction points(uint8 _card)\n\t    private\n\t\tpure\n\t\treturns (uint8) \n\t{\n        return ((_card & 0x0F) > 0x09) ? 0 : (_card & 0x0F);\t\n\t}\n\n\t//检测胜出玩家\n\tfunction detectWinner(uint8[] _bankerCards, uint8[] _playerCards)\n\t    private\n\t\tpure\n\t\treturns (Winner)\n\t{\n        uint8 local_bankerPoints = points(_bankerCards);\t\n\t\tuint8 local_playerPoints = points(_playerCards);\n\n\t\tif (local_bankerPoints > local_playerPoints) {\n\t\t   return Winner.BANKER;\n\t\t}\n\n\t\tif (local_bankerPoints < local_playerPoints) {\n\t\t    return Winner.PLAYER;\n\t\t}\n\n\t\treturn Winner.TIE;\n\t}\n    \n\t//随机抽取一张牌\n\tfunction getCard(uint256 _roomId) \n\t    private \n\t\treturns(uint8) \n\t{\n\t\tuint8 local_card;\n        uint256 local_pokersNum;\n\t    \n\t    local_pokersNum = getPokersNum(_roomId);\t\n\n        if (cards[_roomId][local_pokersNum].length == 1) {\n\t\t    local_card = cards[_roomId][local_pokersNum][0];\n\t\t\tremoveCard(_roomId, local_pokersNum, 0);\n\t\t\treturn local_card;\n\t\t}\n\n\t\tuint256 local_upper = cards[_roomId][local_pokersNum].length;\n\t\tuint256 local_randomNum = 0;\n\t\tuint256 local_seed = 0;\n\n\t\twhile (local_randomNum == 0) {\n\t        local_randomNum = random(local_upper, local_seed);\t\n\t\t\tlocal_seed += 1;\n\t\t}\n        \n        uint256 local_index = local_randomNum - 1;\n        uint256 local_maxLoop = local_upper - 1;\t\t\n\n\t\tlocal_card = cards[_roomId][local_pokersNum][local_index];\n        //将后面的牌往前移\n\t\tfor (uint256 i=local_index; i<local_maxLoop; i++) {\n\t        cards[_roomId][local_pokersNum][i] = cards[_roomId][local_pokersNum][i+1];\t\n\t\t}\n        removeCard(_roomId, local_pokersNum, local_maxLoop);\n\t\treturn local_card;\n\t}\n\n\t//从数组中删除已抽出的牌\n    function removeCard(uint256 _roomId, uint256 _pokersNum, uint256 _index) \n\t    private\n\t\treturns (bool)\n\t{\n        delete cards[_roomId][_pokersNum][_index];\t\n\t\tcards[_roomId][_pokersNum].length--;\n\n\t\treturn true;\n\t}\n\n\t//随机选取一副牌\n\tfunction getPokersNum(uint256 _roomId) \n\t    private \n\t\treturns (uint256) \n\t{\n        uint256[] memory local_pokers = new uint256[](POKERS_NUM);\n        uint256 local_index = 0;\n\n        for (uint256 i=0; i<POKERS_NUM; i++) {\n\t        if (cards[_roomId][i].length != 0) {\n        \t    local_pokers[local_index] = i;\n\t\t\t\tlocal_index += 1;\n\t\t\t}\t\n\t\t}        \n\t\tif (local_index == 0) {\n\t\t\tshuffle(_roomId);\n\t\t\tlocal_index = POKERS_NUM;\n\t\t}\n\t\tuint256 local_key;\n\t\tif (local_index==1) {\n\t\t    local_key = 0;\n\t\t} else {\n\t\t   \tlocal_key = random(local_index-1, 0);\n\t\t}\n        \n\t\treturn local_pokers[local_key];\n\t}\n\n\t//产生一个随机数\n\tfunction random(uint256 _upper, uint256 _seed)\n\t    private\n\t\tview\n        returns (uint256 local_num)\n\t{\n\t\tbytes memory local_randSeed = abi.encodePacked(\n\t\t\tblockhash(block.number - 1),\n\t\t\tnow,\n\t\t\tblock.coinbase,\n\t\t\tblock.difficulty,\n\t\t\t_seed\n\t\t);\n        uint256 seed = uint256(keccak256(local_randSeed));    \t\n\t\tlocal_num = (seed % _upper);\n\t}\n}\n",
  "sourcePath": "/Users/knight/Documents/geth/smart-contracts/eth-baccarat/contracts/Baccarat3.sol",
  "compiler": {
    "name": "solc",
    "version": "0.4.24+commit.e67f0147.Emscripten.clang"
  },
  "schemaVersion": "2.0.1",
  "updatedAt": "2018-08-12T09:10:35.074Z"
}