{
  "contractName": "Baccarat",
  "abi": [
    {
      "inputs": [],
      "payable": false,
      "stateMutability": "nonpayable",
      "type": "constructor"
    },
    {
      "anonymous": false,
      "inputs": [
        {
          "indexed": true,
          "name": "value",
          "type": "uint256"
        },
        {
          "indexed": false,
          "name": "protocol",
          "type": "uint256"
        },
        {
          "indexed": false,
          "name": "upper",
          "type": "uint256"
        },
        {
          "indexed": false,
          "name": "random",
          "type": "uint256"
        },
        {
          "indexed": false,
          "name": "index",
          "type": "uint256"
        }
      ],
      "name": "Deal",
      "type": "event"
    },
    {
      "anonymous": false,
      "inputs": [
        {
          "indexed": true,
          "name": "value",
          "type": "uint256"
        }
      ],
      "name": "Shuffle",
      "type": "event"
    },
    {
      "anonymous": false,
      "inputs": [
        {
          "indexed": false,
          "name": "card",
          "type": "uint8"
        },
        {
          "indexed": false,
          "name": "card_left",
          "type": "uint16"
        }
      ],
      "name": "Deal_Card",
      "type": "event"
    },
    {
      "anonymous": false,
      "inputs": [
        {
          "indexed": false,
          "name": "index",
          "type": "uint16"
        },
        {
          "indexed": false,
          "name": "upper",
          "type": "uint16"
        },
        {
          "indexed": false,
          "name": "num",
          "type": "uint256"
        },
        {
          "indexed": false,
          "name": "counter",
          "type": "uint256"
        },
        {
          "indexed": false,
          "name": "_counter",
          "type": "uint256"
        }
      ],
      "name": "Random_Num",
      "type": "event"
    },
    {
      "anonymous": false,
      "inputs": [
        {
          "indexed": false,
          "name": "hash_string",
          "type": "bytes"
        }
      ],
      "name": "Hash_String",
      "type": "event"
    },
    {
      "constant": false,
      "inputs": [
        {
          "name": "room_id",
          "type": "uint256"
        }
      ],
      "name": "shuffle",
      "outputs": [],
      "payable": false,
      "stateMutability": "nonpayable",
      "type": "function"
    },
    {
      "constant": false,
      "inputs": [
        {
          "name": "room_id",
          "type": "uint256"
        }
      ],
      "name": "deal_card",
      "outputs": [
        {
          "name": "",
          "type": "uint8"
        }
      ],
      "payable": false,
      "stateMutability": "nonpayable",
      "type": "function"
    }
  ],
  "bytecode": "0x6080604052600060025534801561001557600080fd5b5060008054600160a060020a03191633179055611698806100376000396000f30060806040526004361061004b5763ffffffff7c0100000000000000000000000000000000000000000000000000000000600035041663dbc76f7d8114610050578063ef6537b51461007e575b600080fd5b34801561005c57600080fd5b50610068600435610098565b6040805160ff9092168252519081900360200190f35b34801561008a57600080fd5b506100966004356100f7565b005b600080548190819073ffffffffffffffffffffffffffffffffffffffff1633146100c157600080fd5b5060009050805b60048160ff1610156100ed576001820191506100e484836111a3565b506001016100c8565b5060009392505050565b60005473ffffffffffffffffffffffffffffffffffffffff16331461011b57600080fd5b600081815260036020526040812061013291611533565b61340060405190810160405280600160ff168152602001600260ff168152602001600360ff168152602001600460ff168152602001600560ff168152602001600660ff168152602001600760ff168152602001600860ff168152602001600960ff168152602001600a60ff168152602001600b60ff168152602001600c60ff168152602001600d60ff168152602001601160ff168152602001601260ff168152602001601360ff168152602001601460ff168152602001601560ff168152602001601660ff168152602001601760ff168152602001601860ff168152602001601960ff168152602001601a60ff168152602001601b60ff168152602001601c60ff168152602001601d60ff168152602001602160ff168152602001602260ff168152602001602360ff168152602001602460ff168152602001602560ff168152602001602660ff168152602001602760ff168152602001602860ff168152602001602960ff168152602001602a60ff168152602001602b60ff168152602001602c60ff168152602001602d60ff168152602001603160ff168152602001603260ff168152602001603360ff168152602001603460ff168152602001603560ff168152602001603660ff168152602001603760ff168152602001603860ff168152602001603960ff168152602001603a60ff168152602001603b60ff168152602001603c60ff168152602001603d60ff168152602001600160ff168152602001600260ff168152602001600360ff168152602001600460ff168152602001600560ff168152602001600660ff168152602001600760ff168152602001600860ff168152602001600960ff168152602001600a60ff168152602001600b60ff168152602001600c60ff168152602001600d60ff168152602001601160ff168152602001601260ff168152602001601360ff168152602001601460ff168152602001601560ff168152602001601660ff168152602001601760ff168152602001601860ff168152602001601960ff168152602001601a60ff168152602001601b60ff168152602001601c60ff168152602001601d60ff168152602001602160ff168152602001602260ff168152602001602360ff168152602001602460ff168152602001602560ff168152602001602660ff168152602001602760ff168152602001602860ff168152602001602960ff168152602001602a60ff168152602001602b60ff168152602001602c60ff168152602001602d60ff168152602001603160ff168152602001603260ff168152602001603360ff168152602001603460ff168152602001603560ff168152602001603660ff168152602001603760ff168152602001603860ff168152602001603960ff168152602001603a60ff168152602001603b60ff168152602001603c60ff168152602001603d60ff168152602001600160ff168152602001600260ff168152602001600360ff168152602001600460ff168152602001600560ff168152602001600660ff168152602001600760ff168152602001600860ff168152602001600960ff168152602001600a60ff168152602001600b60ff168152602001600c60ff168152602001600d60ff168152602001601160ff168152602001601260ff168152602001601360ff168152602001601460ff168152602001601560ff168152602001601660ff168152602001601760ff168152602001601860ff168152602001601960ff168152602001601a60ff168152602001601b60ff168152602001601c60ff168152602001601d60ff168152602001602160ff168152602001602260ff168152602001602360ff168152602001602460ff168152602001602560ff168152602001602660ff168152602001602760ff168152602001602860ff168152602001602960ff168152602001602a60ff168152602001602b60ff168152602001602c60ff168152602001602d60ff168152602001603160ff168152602001603260ff168152602001603360ff168152602001603460ff168152602001603560ff168152602001603660ff168152602001603760ff168152602001603860ff168152602001603960ff168152602001603a60ff168152602001603b60ff168152602001603c60ff168152602001603d60ff168152602001600160ff168152602001600260ff168152602001600360ff168152602001600460ff168152602001600560ff168152602001600660ff168152602001600760ff168152602001600860ff168152602001600960ff168152602001600a60ff168152602001600b60ff168152602001600c60ff168152602001600d60ff168152602001601160ff168152602001601260ff168152602001601360ff168152602001601460ff168152602001601560ff168152602001601660ff168152602001601760ff168152602001601860ff168152602001601960ff168152602001601a60ff168152602001601b60ff168152602001601c60ff168152602001601d60ff168152602001602160ff168152602001602260ff168152602001602360ff168152602001602460ff168152602001602560ff168152602001602660ff168152602001602760ff168152602001602860ff168152602001602960ff168152602001602a60ff168152602001602b60ff168152602001602c60ff168152602001602d60ff168152602001603160ff168152602001603260ff168152602001603360ff168152602001603460ff168152602001603560ff168152602001603660ff168152602001603760ff168152602001603860ff168152602001603960ff168152602001603a60ff168152602001603b60ff168152602001603c60ff168152602001603d60ff168152602001600160ff168152602001600260ff168152602001600360ff168152602001600460ff168152602001600560ff168152602001600660ff168152602001600760ff168152602001600860ff168152602001600960ff168152602001600a60ff168152602001600b60ff168152602001600c60ff168152602001600d60ff168152602001601160ff168152602001601260ff168152602001601360ff168152602001601460ff168152602001601560ff168152602001601660ff168152602001601760ff168152602001601860ff168152602001601960ff168152602001601a60ff168152602001601b60ff168152602001601c60ff168152602001601d60ff168152602001602160ff168152602001602260ff168152602001602360ff168152602001602460ff168152602001602560ff168152602001602660ff168152602001602760ff168152602001602860ff168152602001602960ff168152602001602a60ff168152602001602b60ff168152602001602c60ff168152602001602d60ff168152602001603160ff168152602001603260ff168152602001603360ff168152602001603460ff168152602001603560ff168152602001603660ff168152602001603760ff168152602001603860ff168152602001603960ff168152602001603a60ff168152602001603b60ff168152602001603c60ff168152602001603d60ff168152602001600160ff168152602001600260ff168152602001600360ff168152602001600460ff168152602001600560ff168152602001600660ff168152602001600760ff168152602001600860ff168152602001600960ff168152602001600a60ff168152602001600b60ff168152602001600c60ff168152602001600d60ff168152602001601160ff168152602001601260ff168152602001601360ff168152602001601460ff168152602001601560ff168152602001601660ff168152602001601760ff168152602001601860ff168152602001601960ff168152602001601a60ff168152602001601b60ff168152602001601c60ff168152602001601d60ff168152602001602160ff168152602001602260ff168152602001602360ff168152602001602460ff168152602001602560ff168152602001602660ff168152602001602760ff168152602001602860ff168152602001602960ff168152602001602a60ff168152602001602b60ff168152602001602c60ff168152602001602d60ff168152602001603160ff168152602001603260ff168152602001603360ff168152602001603460ff168152602001603560ff168152602001603660ff168152602001603760ff168152602001603860ff168152602001603960ff168152602001603a60ff168152602001603b60ff168152602001603c60ff168152602001603d60ff168152602001600160ff168152602001600260ff168152602001600360ff168152602001600460ff168152602001600560ff168152602001600660ff168152602001600760ff168152602001600860ff168152602001600960ff168152602001600a60ff168152602001600b60ff168152602001600c60ff168152602001600d60ff168152602001601160ff168152602001601260ff168152602001601360ff168152602001601460ff168152602001601560ff168152602001601660ff168152602001601760ff168152602001601860ff168152602001601960ff168152602001601a60ff168152602001601b60ff168152602001601c60ff168152602001601d60ff168152602001602160ff168152602001602260ff168152602001602360ff168152602001602460ff168152602001602560ff168152602001602660ff168152602001602760ff168152602001602860ff168152602001602960ff168152602001602a60ff168152602001602b60ff168152602001602c60ff168152602001602d60ff168152602001603160ff168152602001603260ff168152602001603360ff168152602001603460ff168152602001603560ff168152602001603660ff168152602001603760ff168152602001603860ff168152602001603960ff168152602001603a60ff168152602001603b60ff168152602001603c60ff168152602001603d60ff168152602001600160ff168152602001600260ff168152602001600360ff168152602001600460ff168152602001600560ff168152602001600660ff168152602001600760ff168152602001600860ff168152602001600960ff168152602001600a60ff168152602001600b60ff168152602001600c60ff168152602001600d60ff168152602001601160ff168152602001601260ff168152602001601360ff168152602001601460ff168152602001601560ff168152602001601660ff168152602001601760ff168152602001601860ff168152602001601960ff168152602001601a60ff168152602001601b60ff168152602001601c60ff168152602001601d60ff168152602001602160ff168152602001602260ff168152602001602360ff168152602001602460ff168152602001602560ff168152602001602660ff168152602001602760ff168152602001602860ff168152602001602960ff168152602001602a60ff168152602001602b60ff168152602001602c60ff168152602001602d60ff168152602001603160ff168152602001603260ff168152602001603360ff168152602001603460ff168152602001603560ff168152602001603660ff168152602001603760ff168152602001603860ff168152602001603960ff168152602001603a60ff168152602001603b60ff168152602001603c60ff168152602001603d60ff1681525060036000838152602001908152602001600020906101a061119f92919061155b565b5050565b6000828152600360205260408120548190819081908190819015156111ca578495506112d6565b6000888152600360205260409020546001141561122f576000888152600360205260408120805490919081106111fc57fe5b60009182526020808320908204015460ff601f9092166101000a90041695506112269089906112e1565b600a95506112d6565b600088815260036020526040812054945092505b61ffff8316151561125f576112588488611343565b9250611243565b600088815260036020526040902080546000198501935061ffff841690811061128457fe5b90600052602060002090602091828204019190069054906101000a900460ff1694508190505b6001840361ffff168161ffff1610156112c5576001016112aa565b6112d288600186036112e1565b8495505b505050505092915050565b6000828152600360205260409020805461ffff83169081106112ff57fe5b60009182526020808320818304018054601f9093166101000a60ff0219909216909155838252600390526040902080549061133e906000198301611601565b505050565b6000806000611351846113c9565b91508461ffff168281151561136257fe5b6002546040805161ffff9490930684811684529389166020840152828101869052606083019190915260808201879052519192507f0e39147c05e51633eb9289bb8821f66ebedb6f2315d08820f4aa3c14756c415f919081900360a00190a1949350505050565b60015460025460408051602080820194909452600019430140818301524260608201526c010000000000000000000000004102608082015244609482015260b481019290925260d48083018590528151808403909101815260f48301918290528382528051610114840152805160009491937f06a2d8cc69cea84a599abd780741d24961badbf3f2349f09b7262929468c39239385939092839261013401918501908083838b5b83811015611488578181015183820152602001611470565b50505050905090810190601f1680156114b55780820380516001836020036101000a031916815260200191505b509250505060405180910390a1806040518082805190602001908083835b602083106114f25780518252601f1990920191602091820191016114d3565b5181516020939093036101000a6000190180199091169216919091179052604051920182900390912060018181556002805490910190559695505050505050565b50805460008255601f0160209004906000526020600020908101906115589190611631565b50565b82805482825590600052602060002090601f016020900481019282156115f15791602002820160005b838211156115c257835183826101000a81548160ff021916908360ff1602179055509260200192600101602081600001049283019260010302611584565b80156115ef5782816101000a81549060ff02191690556001016020816000010492830192600103026115c2565b505b506115fd92915061164e565b5090565b81548183558181111561133e57601f016020900481601f0160209004836000526020600020918201910161133e91905b61164b91905b808211156115fd5760008155600101611637565b90565b61164b91905b808211156115fd57805460ff191681556001016116545600a165627a7a72305820fd5c307f978c75e5fb946fe963fa13735d33efdad6018b42da0e04f329df03830029",
  "source": "pragma solidity ^0.4.21;\n\ncontract Baccarat {\n\taddress private owner;\n\tuint256 seed;\n\tuint256 private random_counter = 0;\n\n    event Deal(\n\t\tuint256 indexed value, \n\t\tuint256 protocol, \n\t\tuint256 upper,\n\t\tuint256 random,\n\t\tuint256 index\n\t);\n\t\n\tevent Shuffle(\n\t    uint256 indexed value    \n\t);\n\t\n\t/*\n\tevent Deal_Card(\n\t    uint8[] banker_cards,\n\t    uint8[] player_cards,\n\t    uint8   winner\n\t);\n\t*/\n\t\n\tevent Deal_Card(\n\t    uint8 card,\n\t    uint16 card_left\n\t);\n\t\n\tevent Random_Num(\n\t    uint16 index,\n\t\tuint16 upper,\n\t\tuint256 num,\n\t\tuint256 counter,\n\t\tuint256 _counter\n\t);\n\n\tevent Hash_String(bytes hash_string);\n    \n\tmapping(uint256 => uint8[]) private card_list;\n\n\tmodifier onlyOwner() {\n\t    require(owner == msg.sender);\n\t\t_;\n\t}\n\n\tconstructor() public {\n\t    owner = msg.sender;\n\t}\n\n    /**\n\t * @dev shuffle card.\n\t * @param room_id (string) - game room id.\n\t */\n\tfunction shuffle(uint256 room_id) public onlyOwner {\n\t\tdelete card_list[room_id];\n        card_list[room_id] = [\n\t\t\t0x01, 0x02, 0x03, 0x04, 0x05, 0x06, 0x07, 0x08, 0x09, 0x0A, 0x0B, 0x0C, 0x0D,\n\t\t\t0x11, 0x12, 0x13, 0x14, 0x15, 0x16, 0x17, 0x18, 0x19, 0x1A, 0x1B, 0x1C, 0x1D,\n\t\t\t0x21, 0x22, 0x23, 0x24, 0x25, 0x26, 0x27, 0x28, 0x29, 0x2A, 0x2B, 0x2C, 0x2D,\n\t\t\t0x31, 0x32, 0x33, 0x34, 0x35, 0x36, 0x37, 0x38, 0x39, 0x3A, 0x3B, 0x3C, 0x3D,\n\n\t\t\t0x01, 0x02, 0x03, 0x04, 0x05, 0x06, 0x07, 0x08, 0x09, 0x0A, 0x0B, 0x0C, 0x0D,\n\t\t\t0x11, 0x12, 0x13, 0x14, 0x15, 0x16, 0x17, 0x18, 0x19, 0x1A, 0x1B, 0x1C, 0x1D,\n\t\t\t0x21, 0x22, 0x23, 0x24, 0x25, 0x26, 0x27, 0x28, 0x29, 0x2A, 0x2B, 0x2C, 0x2D,\n\t\t\t0x31, 0x32, 0x33, 0x34, 0x35, 0x36, 0x37, 0x38, 0x39, 0x3A, 0x3B, 0x3C, 0x3D,\n\n\t\t\t0x01, 0x02, 0x03, 0x04, 0x05, 0x06, 0x07, 0x08, 0x09, 0x0A, 0x0B, 0x0C, 0x0D,\n\t\t\t0x11, 0x12, 0x13, 0x14, 0x15, 0x16, 0x17, 0x18, 0x19, 0x1A, 0x1B, 0x1C, 0x1D,\n\t\t\t0x21, 0x22, 0x23, 0x24, 0x25, 0x26, 0x27, 0x28, 0x29, 0x2A, 0x2B, 0x2C, 0x2D,\n\t\t\t0x31, 0x32, 0x33, 0x34, 0x35, 0x36, 0x37, 0x38, 0x39, 0x3A, 0x3B, 0x3C, 0x3D,\n\n\t\t\t0x01, 0x02, 0x03, 0x04, 0x05, 0x06, 0x07, 0x08, 0x09, 0x0A, 0x0B, 0x0C, 0x0D,\n\t\t\t0x11, 0x12, 0x13, 0x14, 0x15, 0x16, 0x17, 0x18, 0x19, 0x1A, 0x1B, 0x1C, 0x1D,\n\t\t\t0x21, 0x22, 0x23, 0x24, 0x25, 0x26, 0x27, 0x28, 0x29, 0x2A, 0x2B, 0x2C, 0x2D,\n\t\t\t0x31, 0x32, 0x33, 0x34, 0x35, 0x36, 0x37, 0x38, 0x39, 0x3A, 0x3B, 0x3C, 0x3D,\n\n\t\t\t0x01, 0x02, 0x03, 0x04, 0x05, 0x06, 0x07, 0x08, 0x09, 0x0A, 0x0B, 0x0C, 0x0D,\n\t\t\t0x11, 0x12, 0x13, 0x14, 0x15, 0x16, 0x17, 0x18, 0x19, 0x1A, 0x1B, 0x1C, 0x1D,\n\t\t\t0x21, 0x22, 0x23, 0x24, 0x25, 0x26, 0x27, 0x28, 0x29, 0x2A, 0x2B, 0x2C, 0x2D,\n\t\t\t0x31, 0x32, 0x33, 0x34, 0x35, 0x36, 0x37, 0x38, 0x39, 0x3A, 0x3B, 0x3C, 0x3D,\n\n\t\t\t0x01, 0x02, 0x03, 0x04, 0x05, 0x06, 0x07, 0x08, 0x09, 0x0A, 0x0B, 0x0C, 0x0D,\n\t\t\t0x11, 0x12, 0x13, 0x14, 0x15, 0x16, 0x17, 0x18, 0x19, 0x1A, 0x1B, 0x1C, 0x1D,\n\t\t\t0x21, 0x22, 0x23, 0x24, 0x25, 0x26, 0x27, 0x28, 0x29, 0x2A, 0x2B, 0x2C, 0x2D,\n\t\t\t0x31, 0x32, 0x33, 0x34, 0x35, 0x36, 0x37, 0x38, 0x39, 0x3A, 0x3B, 0x3C, 0x3D,\n\n\t\t\t0x01, 0x02, 0x03, 0x04, 0x05, 0x06, 0x07, 0x08, 0x09, 0x0A, 0x0B, 0x0C, 0x0D,\n\t\t\t0x11, 0x12, 0x13, 0x14, 0x15, 0x16, 0x17, 0x18, 0x19, 0x1A, 0x1B, 0x1C, 0x1D,\n\t\t\t0x21, 0x22, 0x23, 0x24, 0x25, 0x26, 0x27, 0x28, 0x29, 0x2A, 0x2B, 0x2C, 0x2D,\n\t\t\t0x31, 0x32, 0x33, 0x34, 0x35, 0x36, 0x37, 0x38, 0x39, 0x3A, 0x3B, 0x3C, 0x3D,\n\n\t\t\t0x01, 0x02, 0x03, 0x04, 0x05, 0x06, 0x07, 0x08, 0x09, 0x0A, 0x0B, 0x0C, 0x0D,\n\t\t\t0x11, 0x12, 0x13, 0x14, 0x15, 0x16, 0x17, 0x18, 0x19, 0x1A, 0x1B, 0x1C, 0x1D,\n\t\t\t0x21, 0x22, 0x23, 0x24, 0x25, 0x26, 0x27, 0x28, 0x29, 0x2A, 0x2B, 0x2C, 0x2D,\n\t\t\t0x31, 0x32, 0x33, 0x34, 0x35, 0x36, 0x37, 0x38, 0x39, 0x3A, 0x3B, 0x3C, 0x3D\n\t    ];\t\n\t}\n\n\tfunction maxRandom(uint256 _counter) internal returns (uint256) {\n\t   bytes memory rand_string = abi.encodePacked(\n\t\t\t\tseed,\n\t\t\t\tblockhash(block.number - 1),\n\t\t\t\tnow,\n\t\t\t\tblock.coinbase,\n\t\t\t\tblock.difficulty,\n\t\t\t\trandom_counter,\n\t\t\t\t_counter\n\t \t    );\n\n\t\temit Hash_String(rand_string);\n\n\t    seed = uint256(keccak256(rand_string));\n        random_counter += 1; \n\t\treturn seed;\n\t}\n\n\tfunction random(uint16 upper, uint256 _counter) internal returns (uint16) {\n\t    uint256 num = maxRandom(_counter);\n\t    uint16 x = uint16(num % upper);\n\t\temit Random_Num(x, upper, num, random_counter, _counter);\n\t\treturn x;\n\t}\n\n    function get_card(uint256 room_id, uint256 loop_counter) internal returns(uint8) {\n        uint8 card = 0;\n        \n        if (card_list[room_id].length == 0) {\n            return card;\n        } else if (card_list[room_id].length == 1) { //avoid infinite loop to get a random number\n            card = card_list[room_id][0];\n            remove_card(room_id, 0);\n            return 10;\n        }\n        \n        uint16 upper = uint16(card_list[room_id].length);\n        uint16 random_num = 0;\n        while(random_num == 0) {\n            random_num = random(upper, loop_counter);\n        }\n        \n        uint16 index = random_num - 1;\n        card = card_list[room_id][index];\n        //emit Random_Num(random_num); \n        for(uint16 i=index; i<(upper-1); i++) {\n\t\t\t//emit Random_Num(i, upper);\n           // card_list[room_id][i] = card_list[room_id][i+1];\n        }\n        \n        remove_card(room_id, (upper-1));\n        \n        return card;\n    }\n    \n    function remove_card(uint256 room_id, uint16 index) private {\n        delete card_list[room_id][index];\n        card_list[room_id].length--;\n    }\n\n    function deal_card(uint256 room_id) public onlyOwner returns (uint8) {\n\t\t/*\n        uint8[] memory banker_cards = new uint8[](3);\n        uint8[] memory player_cards = new uint8[](3);\n        uint8 value = get_card(room_id);\n        uint16 card_left = uint16(card_list[room_id].length);\n        emit Deal_Card(value, card_left);\n\t   */\n\t    uint256 loop_counter = 0; \n        for(uint8 i=0; i<4; i++) {\n\t\t\tloop_counter += 1;\n\t\t\tget_card(room_id, loop_counter);\n\t\t\t/*\n\t\t\temit Deal_Card(\n\t\t\t\tget_card(room_id),\n\t\t\t   \tuint16(card_list[room_id].length)\n\t\t\t);\n\t\t   */\n            //banker_cards[i] = get_card(room_id);\n            //player_cards[i] = get_card(room_id);\n        }\n\t\treturn 0;\n        \n        /*\n        uint8 need_more_card = need_deal_card_again(banker_cards, player_cards);\n        \n        if (need_more_card == 1) { //banker need more one card\n            banker_cards[2] = get_card(room_id);\n            // after assign one card to the banker, detective again\n            need_more_card = need_deal_card_again(banker_cards, player_cards);\n            if(need_more_card == 2) {\n                player_cards[2] = get_card(room_id);\n            }\n        } else if (need_more_card == 2) { //player need more one card\n            player_cards[2] = get_card(room_id);\n            // after assign one card to player, detective again\n            need_more_card = need_deal_card_again(banker_cards, player_cards);\n            if(need_more_card == 1) {\n                banker_cards[2] = get_card(room_id);\n            }\n        }\n        uint8 winner = compare_card(banker_cards, player_cards);\n        \n        emit Deal_Card(banker_cards, player_cards, winner);\n        */\n    }\n    \n    function need_deal_card_again(uint8[] banker_cards, uint8[] player_cards) \n\t    internal \n\t\tpure \n\t\treturns (uint8)\n\t{\n        uint8 banker_cards_length = 0;\n        uint8 player_cards_length = 0;\n        uint8 banker_point = compute_final_point(banker_cards);\n        uint8 player_point = compute_final_point(player_cards);\n        uint8 player_last_card = get_last_card(player_cards);\n        \n        for(uint8 i=0; i<3; i++) {\n            if (banker_cards[i] > 0) {\n                banker_cards_length += 1;\n            }\n            if (player_cards[i] > 0) {\n                player_cards_length += 1;\n            }\n        }\n        if (banker_cards_length==3 && player_cards_length==3) {\n            return 0;\n        }\n        \n        if (\n            banker_cards_length == 2 && \n            player_cards_length == 2 && \n            (\n                (banker_point >= 8) || (player_point >= 8)\n            )\n        ) {\n            return 0;\n        } \n        \n        if (\n            player_cards_length == 2 && \n            player_point >= 6 &&\n            banker_cards_length == 2 && \n            banker_point <= 5 \n        ) {\n            return 1;\n        }\n        // player need more one card\n        if (\n            player_cards_length == 2 &&\n            player_point <= 5\n        ) {\n            return 2;\n        }\n        \n        if (\n            player_cards_length == 3 &&\n            banker_point <= 2\n        ) {\n            return 1;\n        }\n        //banker need more one card\n        if (\n            player_cards_length == 3 &&\n            banker_point == 3 &&\n            player_last_card != 8\n        ) {\n            return 1;\n        }\n        \n        if (\n            player_cards_length == 3 &&\n            banker_point == 4 && \n            player_last_card >= 2 &&\n            player_last_card <= 7\n        ) {\n            return 1;\n        }\n        \n        if (\n            player_cards_length == 3 &&\n            banker_point == 5 &&\n            player_last_card >= 4 &&\n            player_last_card <= 7\n        ) {\n            return 1;\n        }\n        \n        if (\n            player_cards_length == 3 &&\n            banker_point == 6 &&\n            player_last_card >= 6 &&\n            player_last_card <= 7\n        ) {\n            return 1;\n        }\n        \n        return 0;\n    }\n    \n    function get_last_card(uint8[] memory cards) internal pure returns (uint8) {\n        for (uint256 i = cards.length; i<=0; i--) {\n            if (cards[i] > 0) {\n                return cards[i];\n            }\n        }\n        return 0;\n    }\n    \n    function compute_final_point(uint8[] cards) internal pure returns (uint8) {\n        uint8 result = 0;\n        for(uint8 i=0; i<cards.length; i++) {\n            result += compute_card_point(cards[i]);\n        }\n        return result%10;\n    }\n    \n    function compute_card_point(uint8 card) internal pure returns (uint8) {\n        if ((card & 15) > 9) {\n            return 0;\n        } \n        return card & 15;\n    }\n    \n    function compare_card(uint8[] memory banker_cards, uint8[] memory player_cards) \n\t    internal \n\t\tpure \n\t\treturns (uint8) \n\t{\n        uint8 banker_point = compute_final_point(banker_cards);\n        uint8 player_point = compute_final_point(player_cards);\n        if (banker_point > player_point) { // banker win\n           return 1; \n        }\n        if (player_point > banker_point) { //player win\n            return 2;\n        } else { //tie\n            return 0;\n        }\n    }\n}\n",
  "sourcePath": "/Users/knight/Documents/geth/smart-contracts/eth-baccarat/contracts/Baccarat.sol",
  "compiler": {
    "name": "solc",
    "version": "0.4.24+commit.e67f0147.Emscripten.clang"
  },
  "schemaVersion": "2.0.1",
  "updatedAt": "2018-08-09T10:43:54.719Z"
}