{
  "contractName": "Baccarat2",
  "abi": [
    {
      "inputs": [],
      "payable": false,
      "stateMutability": "nonpayable",
      "type": "constructor"
    },
    {
      "anonymous": false,
      "inputs": [
        {
          "indexed": false,
          "name": "randomNum",
          "type": "uint256"
        },
        {
          "indexed": false,
          "name": "index",
          "type": "uint256"
        },
        {
          "indexed": false,
          "name": "maxLoop",
          "type": "uint256"
        }
      ],
      "name": "LogGetOneCard",
      "type": "event"
    },
    {
      "constant": false,
      "inputs": [
        {
          "name": "_roomId",
          "type": "uint256"
        }
      ],
      "name": "shuffle",
      "outputs": [
        {
          "name": "",
          "type": "bool"
        }
      ],
      "payable": false,
      "stateMutability": "nonpayable",
      "type": "function"
    },
    {
      "constant": false,
      "inputs": [
        {
          "name": "_roomId",
          "type": "uint256"
        }
      ],
      "name": "dealCard",
      "outputs": [],
      "payable": false,
      "stateMutability": "nonpayable",
      "type": "function"
    }
  ],
  "bytecode": "0x608060405261208060405190810160405280600160ff168152602001600260ff168152602001600360ff168152602001600460ff168152602001600560ff168152602001600660ff168152602001600760ff168152602001600860ff168152602001600960ff168152602001600a60ff168152602001600b60ff168152602001600c60ff168152602001600d60ff168152602001601160ff168152602001601260ff168152602001601360ff168152602001601460ff168152602001601560ff168152602001601660ff168152602001601760ff168152602001601860ff168152602001601960ff168152602001601a60ff168152602001601b60ff168152602001601c60ff168152602001601d60ff168152602001602160ff168152602001602260ff168152602001602360ff168152602001602460ff168152602001602560ff168152602001602660ff168152602001602760ff168152602001602860ff168152602001602960ff168152602001602a60ff168152602001602b60ff168152602001602c60ff168152602001602d60ff168152602001603160ff168152602001603260ff168152602001603360ff168152602001603460ff168152602001603560ff168152602001603660ff168152602001603760ff168152602001603860ff168152602001603960ff168152602001603a60ff168152602001603b60ff168152602001603c60ff168152602001603d60ff168152602001600160ff168152602001600260ff168152602001600360ff168152602001600460ff168152602001600560ff168152602001600660ff168152602001600760ff168152602001600860ff168152602001600960ff168152602001600a60ff168152602001600b60ff168152602001600c60ff168152602001600d60ff168152602001601160ff168152602001601260ff168152602001601360ff168152602001601460ff168152602001601560ff168152602001601660ff168152602001601760ff168152602001601860ff168152602001601960ff168152602001601a60ff168152602001601b60ff168152602001601c60ff168152602001601d60ff168152602001602160ff168152602001602260ff168152602001602360ff168152602001602460ff168152602001602560ff168152602001602660ff168152602001602760ff168152602001602860ff168152602001602960ff168152602001602a60ff168152602001602b60ff168152602001602c60ff168152602001602d60ff168152602001603160ff168152602001603260ff168152602001603360ff168152602001603460ff168152602001603560ff168152602001603660ff168152602001603760ff168152602001603860ff168152602001603960ff168152602001603a60ff168152602001603b60ff168152602001603c60ff168152602001603d60ff168152602001600160ff168152602001600260ff168152602001600360ff168152602001600460ff168152602001600560ff168152602001600660ff168152602001600760ff168152602001600860ff168152602001600960ff168152602001600a60ff168152602001600b60ff168152602001600c60ff168152602001600d60ff168152602001601160ff168152602001601260ff168152602001601360ff168152602001601460ff168152602001601560ff168152602001601660ff168152602001601760ff168152602001601860ff168152602001601960ff168152602001601a60ff168152602001601b60ff168152602001601c60ff168152602001601d60ff168152602001602160ff168152602001602260ff168152602001602360ff168152602001602460ff168152602001602560ff168152602001602660ff168152602001602760ff168152602001602860ff168152602001602960ff168152602001602a60ff168152602001602b60ff168152602001602c60ff168152602001602d60ff168152602001603160ff168152602001603260ff168152602001603360ff168152602001603460ff168152602001603560ff168152602001603660ff168152602001603760ff168152602001603860ff168152602001603960ff168152602001603a60ff168152602001603b60ff168152602001603c60ff168152602001603d60ff168152602001600160ff168152602001600260ff168152602001600360ff168152602001600460ff168152602001600560ff168152602001600660ff168152602001600760ff168152602001600860ff168152602001600960ff168152602001600a60ff168152602001600b60ff168152602001600c60ff168152602001600d60ff168152602001601160ff168152602001601260ff168152602001601360ff168152602001601460ff168152602001601560ff168152602001601660ff168152602001601760ff168152602001601860ff168152602001601960ff168152602001601a60ff168152602001601b60ff168152602001601c60ff168152602001601d60ff168152602001602160ff168152602001602260ff168152602001602360ff168152602001602460ff168152602001602560ff168152602001602660ff168152602001602760ff168152602001602860ff168152602001602960ff168152602001602a60ff168152602001602b60ff168152602001602c60ff168152602001602d60ff168152602001603160ff168152602001603260ff168152602001603360ff168152602001603460ff168152602001603560ff168152602001603660ff168152602001603760ff168152602001603860ff168152602001603960ff168152602001603a60ff168152602001603b60ff168152602001603c60ff168152602001603d60ff168152602001600160ff168152602001600260ff168152602001600360ff168152602001600460ff168152602001600560ff168152602001600660ff168152602001600760ff168152602001600860ff168152602001600960ff168152602001600a60ff168152602001600b60ff168152602001600c60ff168152602001600d60ff168152602001601160ff168152602001601260ff168152602001601360ff168152602001601460ff168152602001601560ff168152602001601660ff168152602001601760ff168152602001601860ff168152602001601960ff168152602001601a60ff168152602001601b60ff168152602001601c60ff168152602001601d60ff168152602001602160ff168152602001602260ff168152602001602360ff168152602001602460ff168152602001602560ff168152602001602660ff168152602001602760ff168152602001602860ff168152602001602960ff168152602001602a60ff168152602001602b60ff168152602001602c60ff168152602001602d60ff168152602001603160ff168152602001603260ff168152602001603360ff168152602001603460ff168152602001603560ff168152602001603660ff168152602001603760ff168152602001603860ff168152602001603960ff168152602001603a60ff168152602001603b60ff168152602001603c60ff168152602001603d60ff16815250600090610104610a48929190610a72565b506000600a55348015610a5a57600080fd5b50600b8054600160a060020a03191633179055610b26565b600983019183908215610af55791602002820160005b83821115610ac657835183826101000a81548160ff021916908360ff1602179055509260200192600101602081600001049283019260010302610a88565b8015610af35782816101000a81549060ff0219169055600101602081600001049283019260010302610ac6565b505b50610b01929150610b05565b5090565b610b2391905b80821115610b0157805460ff19168155600101610b0b565b90565b61075680610b356000396000f30060806040526004361061004b5763ffffffff7c0100000000000000000000000000000000000000000000000000000000600035041663b3bbcd9a8114610050578063ef6537b51461006a575b600080fd5b34801561005c57600080fd5b50610068600435610096565b005b34801561007657600080fd5b506100826004356101a1565b604080519115158252519081900360200190f35b600b54600090606090829073ffffffffffffffffffffffffffffffffffffffff163314610133576040805160e560020a62461bcd02815260206004820152602260248201527f4f6e6c79206f776e65722063616e2063616c6c20746869732066756e6374696f60448201527f6e2e000000000000000000000000000000000000000000000000000000000000606482015290519081900360840190fd5b60408051600480825260a08201909252600094509060208201608080388339019050509150600090505b600481101561019b57610170848461025c565b828281518110151561017e57fe5b60ff9092166020928302909101909101526001928301920161015d565b50505050565b600b5460009073ffffffffffffffffffffffffffffffffffffffff163314610239576040805160e560020a62461bcd02815260206004820152602260248201527f4f6e6c79206f776e65722063616e2063616c6c20746869732066756e6374696f60448201527f6e2e000000000000000000000000000000000000000000000000000000000000606482015290519081900360840190fd5b6000828152600c6020526040812061025391610104610660565b50600192915050565b6000828152600c602052604081205481908190819081908190819081908a90600111156102d3576040805160e560020a62461bcd02815260206004820152601260248201527f6361726473206e6f7420656e6f756768742e0000000000000000000000000000604482015290519081900360640190fd5b60008b8152600c6020526040902054600114156103395760008b8152600c602052604081208054909190811061030557fe5b90600052602060002090602091828204019190069054906101000a900460ff1697506103308b6101a1565b5087985061049c565b60008b8152600c6020526040812054975095508594505b85151561036f57610362878b876104aa565b9550600185019450610350565b60008b8152600c6020526040902080546000198089019650890194508590811061039557fe5b60009182526020918290208282040154604080518a815293840188905283810187905251601f9092166101000a900460ff1699507f8b5c05fffc3f9d3b637db208ca5bc1ba0f948a0c85c7e4e57320c4c59dac49e4916060908290030190a18391505b8282101561048d5760008b8152600c6020526040902080546001840190811061041d57fe5b6000918252602080832081830401548e8452600c90915260409092208054601f9092166101000a90920460ff1691908490811061045657fe5b90600052602060002090602091828204019190066101000a81548160ff021916908360ff16021790555081806001019250506103f8565b6104978b84610593565b508798505b505050505050505092915050565b600a80546001019081905560095460408051602080820193909352600019430140818301524260608201526c010000000000000000000000004102608082015244609482015260b481019390935260d4830185905260f4808401859052815180850390910181526101149093019081905282516000939283929182918401908083835b6020831061054c5780518252601f19909201916020918201910161052d565b5181516020939093036101000a60001901801990911692169190911790526040519201829003909120600981905588935091505081151561058957fe5b0695945050505050565b6000828152600c60205260408120548390600111156105fc576040805160e560020a62461bcd02815260206004820152601260248201527f6361726473206e6f7420656e6f756768742e0000000000000000000000000000604482015290519081900360640190fd5b6000848152600c6020526040902080548490811061061657fe5b60009182526020808320818304018054601f9093166101000a60ff0219909216909155858252600c9052604090208054906106559060001983016106b6565b506001949350505050565b82805482825590600052602060002090601f016020900481019282156106a65791601f016020900482015b828111156106a657825482559160010191906001019061068b565b506106b29291506106ef565b5090565b8154818355818111156106ea57601f016020900481601f016020900483600052602060002091820191016106ea9190610710565b505050565b61070d91905b808211156106b257805460ff191681556001016106f5565b90565b61070d91905b808211156106b257600081556001016107165600a165627a7a72305820752ab7f5b0590864ca7bca3bd3b488247c30aaaf46e2552f6551c98e43de83630029",
  "source": "pragma solidity ^0.4.24;\n\ncontract Baccarat2 {\n\tuint16 private constant MAX_CARDS = (260);\n\n    uint8[MAX_CARDS] private pokers = [\n\t\t0x01, 0x02, 0x03, 0x04, 0x05, 0x06, 0x07, 0x08, 0x09, 0x0A, 0x0B, 0x0C, 0x0D,\n\t\t0x11, 0x12, 0x13, 0x14, 0x15, 0x16, 0x17, 0x18, 0x19, 0x1A, 0x1B, 0x1C, 0x1D,\n\t\t0x21, 0x22, 0x23, 0x24, 0x25, 0x26, 0x27, 0x28, 0x29, 0x2A, 0x2B, 0x2C, 0x2D,\n\t\t0x31, 0x32, 0x33, 0x34, 0x35, 0x36, 0x37, 0x38, 0x39, 0x3A, 0x3B, 0x3C, 0x3D,\n\n\t\t0x01, 0x02, 0x03, 0x04, 0x05, 0x06, 0x07, 0x08, 0x09, 0x0A, 0x0B, 0x0C, 0x0D,\n\t\t0x11, 0x12, 0x13, 0x14, 0x15, 0x16, 0x17, 0x18, 0x19, 0x1A, 0x1B, 0x1C, 0x1D,\n\t\t0x21, 0x22, 0x23, 0x24, 0x25, 0x26, 0x27, 0x28, 0x29, 0x2A, 0x2B, 0x2C, 0x2D,\n\t\t0x31, 0x32, 0x33, 0x34, 0x35, 0x36, 0x37, 0x38, 0x39, 0x3A, 0x3B, 0x3C, 0x3D,\n\t\t\n\t\t0x01, 0x02, 0x03, 0x04, 0x05, 0x06, 0x07, 0x08, 0x09, 0x0A, 0x0B, 0x0C, 0x0D,\n\t\t0x11, 0x12, 0x13, 0x14, 0x15, 0x16, 0x17, 0x18, 0x19, 0x1A, 0x1B, 0x1C, 0x1D,\n\t\t0x21, 0x22, 0x23, 0x24, 0x25, 0x26, 0x27, 0x28, 0x29, 0x2A, 0x2B, 0x2C, 0x2D,\n\t\t0x31, 0x32, 0x33, 0x34, 0x35, 0x36, 0x37, 0x38, 0x39, 0x3A, 0x3B, 0x3C, 0x3D,\n\n\t\t\n\t\t0x01, 0x02, 0x03, 0x04, 0x05, 0x06, 0x07, 0x08, 0x09, 0x0A, 0x0B, 0x0C, 0x0D,\n\t\t0x11, 0x12, 0x13, 0x14, 0x15, 0x16, 0x17, 0x18, 0x19, 0x1A, 0x1B, 0x1C, 0x1D,\n\t\t0x21, 0x22, 0x23, 0x24, 0x25, 0x26, 0x27, 0x28, 0x29, 0x2A, 0x2B, 0x2C, 0x2D,\n\t\t0x31, 0x32, 0x33, 0x34, 0x35, 0x36, 0x37, 0x38, 0x39, 0x3A, 0x3B, 0x3C, 0x3D,\n\n\t\t0x01, 0x02, 0x03, 0x04, 0x05, 0x06, 0x07, 0x08, 0x09, 0x0A, 0x0B, 0x0C, 0x0D,\n\t\t0x11, 0x12, 0x13, 0x14, 0x15, 0x16, 0x17, 0x18, 0x19, 0x1A, 0x1B, 0x1C, 0x1D,\n\t\t0x21, 0x22, 0x23, 0x24, 0x25, 0x26, 0x27, 0x28, 0x29, 0x2A, 0x2B, 0x2C, 0x2D,\n\t\t0x31, 0x32, 0x33, 0x34, 0x35, 0x36, 0x37, 0x38, 0x39, 0x3A, 0x3B, 0x3C, 0x3D\n/*\n\t\t0x01, 0x02, 0x03, 0x04, 0x05, 0x06, 0x07, 0x08, 0x09, 0x0A, 0x0B, 0x0C, 0x0D,\n\t\t0x11, 0x12, 0x13, 0x14, 0x15, 0x16, 0x17, 0x18, 0x19, 0x1A, 0x1B, 0x1C, 0x1D,\n\t\t0x21, 0x22, 0x23, 0x24, 0x25, 0x26, 0x27, 0x28, 0x29, 0x2A, 0x2B, 0x2C, 0x2D,\n\t\t0x31, 0x32, 0x33, 0x34, 0x35, 0x36, 0x37, 0x38, 0x39, 0x3A, 0x3B, 0x3C, 0x3D,\n\n\t\t0x01, 0x02, 0x03, 0x04, 0x05, 0x06, 0x07, 0x08, 0x09, 0x0A, 0x0B, 0x0C, 0x0D,\n\t\t0x11, 0x12, 0x13, 0x14, 0x15, 0x16, 0x17, 0x18, 0x19, 0x1A, 0x1B, 0x1C, 0x1D,\n\t\t0x21, 0x22, 0x23, 0x24, 0x25, 0x26, 0x27, 0x28, 0x29, 0x2A, 0x2B, 0x2C, 0x2D,\n\t\t0x31, 0x32, 0x33, 0x34, 0x35, 0x36, 0x37, 0x38, 0x39, 0x3A, 0x3B, 0x3C, 0x3D,\n\n\t\t0x01, 0x02, 0x03, 0x04, 0x05, 0x06, 0x07, 0x08, 0x09, 0x0A, 0x0B, 0x0C, 0x0D,\n\t\t0x11, 0x12, 0x13, 0x14, 0x15, 0x16, 0x17, 0x18, 0x19, 0x1A, 0x1B, 0x1C, 0x1D,\n\t\t0x21, 0x22, 0x23, 0x24, 0x25, 0x26, 0x27, 0x28, 0x29, 0x2A, 0x2B, 0x2C, 0x2D,\n\t\t0x31, 0x32, 0x33, 0x34, 0x35, 0x36, 0x37, 0x38, 0x39, 0x3A, 0x3B, 0x3C, 0x3D\n\t   */\n\t];\n\n\tuint256 private seed;\n\tuint256 private randomCounter = 0;\n\taddress private owner;\n\tmapping(uint256 => uint8[]) private cards;\n\n\tevent LogGetOneCard(uint256 randomNum, uint256 index, uint256 maxLoop);\n    \n\tmodifier onlyOwner {\n\t    require(\n\t\t\towner == msg.sender,\n\t\t\t\"Only owner can call this function.\"\n\t\t);\n\t\t_;\n\t}\n\n\tmodifier cardsRemainder(uint256 _roomId) {\n\t    require(\n\t\t   cards[_roomId].length >= 1,\n\t\t   \"cards not enought.\" \n\t\t);\n\t\t_;\n\t}\n\n\tconstructor() public {\n\t    owner = msg.sender;\n\t}\n\n\tfunction shuffle(uint256 _roomId) \n\t    public\n        onlyOwner\t\n\t\treturns (bool)\n\t{\n        cards[_roomId] = pokers;\t\n\t\treturn true;\n\t}\n\n\t//发牌\n\tfunction dealCard(uint256 _roomId) \n\t    public \n\t\tonlyOwner\n\t{\n\t\tuint256 local_counter = 0;\n\t\tuint8[] memory local_card = new uint8[](4);\n        for(uint256 i=0; i<4; i++) {\n\t        local_card[i] = getOneCard(_roomId, local_counter);        \t\n\t\t\tlocal_counter += 1;\n\t\t}\t\n\t}\n\n\t//随机抽取一张牌\n    function getOneCard(uint256 _roomId, uint256 _counter) \n\t    internal \n\t\tcardsRemainder(_roomId) \n\t\treturns (uint8) \n\t{\n        uint8 local_card;\n        //只剩一张牌了\n\t\tif (cards[_roomId].length == 1) {\n\t        local_card = cards[_roomId][0];    \t\n\t\t\tshuffle(_roomId);\n\t\t\treturn local_card;\n\t\t}\n\n\t\tuint256 local_upper = cards[_roomId].length;\n\t\tuint256 local_randomNum = 0;\n\t\tuint256 local_seed = 0;\n\n\t\twhile(local_randomNum == 0) {\n\t        local_randomNum = random(local_upper, _counter, local_seed);\t\n\t\t\tlocal_seed += 1;\n\t\t}\n\n\t\tuint256 local_index = local_randomNum - 1;\n\t\tuint256 local_maxLoop = local_upper - 1;\n\n\t\tlocal_card = cards[_roomId][local_index];\n\n\t\temit LogGetOneCard(local_randomNum, local_index, local_maxLoop);\n\n\t\tfor(uint256 i=local_index; i<local_maxLoop; i++) {\n\t        cards[_roomId][i] = cards[_roomId][i+1];\t\n\t\t}\n\n\t\tremoveCard(_roomId, local_maxLoop);\n\n\t\treturn local_card;\n\t}\t\n\n\t//每发一张牌，剩余牌数量减1\n\tfunction removeCard(uint256 _roomId, uint256 _index) \n\t    private \n\t\tcardsRemainder(_roomId) \n\t\treturns (bool) \n\t{\n        delete cards[_roomId][_index];\t\n\t\tcards[_roomId].length--;\n\n\t\treturn true;\n\t}\n\n\t//产生一个随机数\n\tfunction random(uint256 _upper, uint256 _counter, uint256 _seed)\n\t    private\n        returns (uint256 local_num)\n\t{\n        randomCounter += 1;\n\t\tbytes memory local_randSeed = abi.encodePacked(\n\t\t    seed,\n\t\t\tblockhash(block.number - 1),\n\t\t\tnow,\n\t\t\tblock.coinbase,\n\t\t\tblock.difficulty,\n\t\t\trandomCounter,\n\t\t\t_counter,\n\t\t\t_seed\n\t\t);\n        seed = uint256(keccak256(local_randSeed));    \t\n\t\tlocal_num = (seed % _upper);\n\t}\n}\n",
  "sourcePath": "/Users/knight/Documents/geth/smart-contracts/eth-baccarat/contracts/Baccarat2.sol",
  "compiler": {
    "name": "solc",
    "version": "0.4.24+commit.e67f0147.Emscripten.clang"
  },
  "schemaVersion": "2.0.1",
  "updatedAt": "2018-08-09T10:43:54.726Z"
}