{
  "contractName": "Baccarat3",
  "abi": [
    {
      "constant": true,
      "inputs": [
        {
          "name": "",
          "type": "uint256"
        },
        {
          "name": "",
          "type": "uint256"
        },
        {
          "name": "",
          "type": "uint256"
        }
      ],
      "name": "cards",
      "outputs": [
        {
          "name": "",
          "type": "uint8"
        }
      ],
      "payable": false,
      "stateMutability": "view",
      "type": "function"
    },
    {
      "anonymous": false,
      "inputs": [
        {
          "indexed": false,
          "name": "shuffle",
          "type": "uint256"
        }
      ],
      "name": "LogShuffle",
      "type": "event"
    },
    {
      "anonymous": false,
      "inputs": [
        {
          "indexed": false,
          "name": "card",
          "type": "uint8[]"
        }
      ],
      "name": "LogCards",
      "type": "event"
    },
    {
      "anonymous": false,
      "inputs": [
        {
          "indexed": false,
          "name": "bankerCards",
          "type": "uint8[]"
        },
        {
          "indexed": false,
          "name": "bankerPoints",
          "type": "uint8"
        },
        {
          "indexed": false,
          "name": "playerCards",
          "type": "uint8[]"
        },
        {
          "indexed": false,
          "name": "playerPoints",
          "type": "uint8"
        }
      ],
      "name": "LogNeedMore",
      "type": "event"
    },
    {
      "anonymous": false,
      "inputs": [
        {
          "indexed": false,
          "name": "value",
          "type": "uint256"
        }
      ],
      "name": "LogTest",
      "type": "event"
    },
    {
      "constant": false,
      "inputs": [
        {
          "name": "_roomId",
          "type": "uint256"
        },
        {
          "name": "_pokersNum",
          "type": "uint8"
        }
      ],
      "name": "shuffle",
      "outputs": [
        {
          "name": "",
          "type": "uint8"
        }
      ],
      "payable": false,
      "stateMutability": "nonpayable",
      "type": "function"
    },
    {
      "constant": false,
      "inputs": [
        {
          "name": "_roomId",
          "type": "uint256"
        }
      ],
      "name": "shuffle",
      "outputs": [
        {
          "name": "",
          "type": "bool"
        }
      ],
      "payable": false,
      "stateMutability": "nonpayable",
      "type": "function"
    },
    {
      "constant": false,
      "inputs": [
        {
          "name": "_roomId",
          "type": "uint256"
        }
      ],
      "name": "dealCard",
      "outputs": [],
      "payable": false,
      "stateMutability": "nonpayable",
      "type": "function"
    }
  ],
  "bytecode": "0x60806040526101006040519081016040528061068060405190810160405280600160ff168152602001600260ff168152602001600360ff168152602001600460ff168152602001600560ff168152602001600660ff168152602001600760ff168152602001600860ff168152602001600960ff168152602001600a60ff168152602001600b60ff168152602001600c60ff168152602001600d60ff168152602001601160ff168152602001601260ff168152602001601360ff168152602001601460ff168152602001601560ff168152602001601660ff168152602001601760ff168152602001601860ff168152602001601960ff168152602001601a60ff168152602001601b60ff168152602001601c60ff168152602001601d60ff168152602001602160ff168152602001602260ff168152602001602360ff168152602001602460ff168152602001602560ff168152602001602660ff168152602001602760ff168152602001602860ff168152602001602960ff168152602001602a60ff168152602001602b60ff168152602001602c60ff168152602001602d60ff168152602001603160ff168152602001603260ff168152602001603360ff168152602001603460ff168152602001603560ff168152602001603660ff168152602001603760ff168152602001603860ff168152602001603960ff168152602001603a60ff168152602001603b60ff168152602001603c60ff168152602001603d60ff16815250815260200161068060405190810160405280600160ff168152602001600260ff168152602001600360ff168152602001600460ff168152602001600560ff168152602001600660ff168152602001600760ff168152602001600860ff168152602001600960ff168152602001600a60ff168152602001600b60ff168152602001600c60ff168152602001600d60ff168152602001601160ff168152602001601260ff168152602001601360ff168152602001601460ff168152602001601560ff168152602001601660ff168152602001601760ff168152602001601860ff168152602001601960ff168152602001601a60ff168152602001601b60ff168152602001601c60ff168152602001601d60ff168152602001602160ff168152602001602260ff168152602001602360ff168152602001602460ff168152602001602560ff168152602001602660ff168152602001602760ff168152602001602860ff168152602001602960ff168152602001602a60ff168152602001602b60ff168152602001602c60ff168152602001602d60ff168152602001603160ff168152602001603260ff168152602001603360ff168152602001603460ff168152602001603560ff168152602001603660ff168152602001603760ff168152602001603860ff168152602001603960ff168152602001603a60ff168152602001603b60ff168152602001603c60ff168152602001603d60ff16815250815260200161068060405190810160405280600160ff168152602001600260ff168152602001600360ff168152602001600460ff168152602001600560ff168152602001600660ff168152602001600760ff168152602001600860ff168152602001600960ff168152602001600a60ff168152602001600b60ff168152602001600c60ff168152602001600d60ff168152602001601160ff168152602001601260ff168152602001601360ff168152602001601460ff168152602001601560ff168152602001601660ff168152602001601760ff168152602001601860ff168152602001601960ff168152602001601a60ff168152602001601b60ff168152602001601c60ff168152602001601d60ff168152602001602160ff168152602001602260ff168152602001602360ff168152602001602460ff168152602001602560ff168152602001602660ff168152602001602760ff168152602001602860ff168152602001602960ff168152602001602a60ff168152602001602b60ff168152602001602c60ff168152602001602d60ff168152602001603160ff168152602001603260ff168152602001603360ff168152602001603460ff168152602001603560ff168152602001603660ff168152602001603760ff168152602001603860ff168152602001603960ff168152602001603a60ff168152602001603b60ff168152602001603c60ff168152602001603d60ff16815250815260200161068060405190810160405280600160ff168152602001600260ff168152602001600360ff168152602001600460ff168152602001600560ff168152602001600660ff168152602001600760ff168152602001600860ff168152602001600960ff168152602001600a60ff168152602001600b60ff168152602001600c60ff168152602001600d60ff168152602001601160ff168152602001601260ff168152602001601360ff168152602001601460ff168152602001601560ff168152602001601660ff168152602001601760ff168152602001601860ff168152602001601960ff168152602001601a60ff168152602001601b60ff168152602001601c60ff168152602001601d60ff168152602001602160ff168152602001602260ff168152602001602360ff168152602001602460ff168152602001602560ff168152602001602660ff168152602001602760ff168152602001602860ff168152602001602960ff168152602001602a60ff168152602001602b60ff168152602001602c60ff168152602001602d60ff168152602001603160ff168152602001603260ff168152602001603360ff168152602001603460ff168152602001603560ff168152602001603660ff168152602001603760ff168152602001603860ff168152602001603960ff168152602001603a60ff168152602001603b60ff168152602001603c60ff168152602001603d60ff16815250815260200161068060405190810160405280600160ff168152602001600260ff168152602001600360ff168152602001600460ff168152602001600560ff168152602001600660ff168152602001600760ff168152602001600860ff168152602001600960ff168152602001600a60ff168152602001600b60ff168152602001600c60ff168152602001600d60ff168152602001601160ff168152602001601260ff168152602001601360ff168152602001601460ff168152602001601560ff168152602001601660ff168152602001601760ff168152602001601860ff168152602001601960ff168152602001601a60ff168152602001601b60ff168152602001601c60ff168152602001601d60ff168152602001602160ff168152602001602260ff168152602001602360ff168152602001602460ff168152602001602560ff168152602001602660ff168152602001602760ff168152602001602860ff168152602001602960ff168152602001602a60ff168152602001602b60ff168152602001602c60ff168152602001602d60ff168152602001603160ff168152602001603260ff168152602001603360ff168152602001603460ff168152602001603560ff168152602001603660ff168152602001603760ff168152602001603860ff168152602001603960ff168152602001603a60ff168152602001603b60ff168152602001603c60ff168152602001603d60ff16815250815260200161068060405190810160405280600160ff168152602001600260ff168152602001600360ff168152602001600460ff168152602001600560ff168152602001600660ff168152602001600760ff168152602001600860ff168152602001600960ff168152602001600a60ff168152602001600b60ff168152602001600c60ff168152602001600d60ff168152602001601160ff168152602001601260ff168152602001601360ff168152602001601460ff168152602001601560ff168152602001601660ff168152602001601760ff168152602001601860ff168152602001601960ff168152602001601a60ff168152602001601b60ff168152602001601c60ff168152602001601d60ff168152602001602160ff168152602001602260ff168152602001602360ff168152602001602460ff168152602001602560ff168152602001602660ff168152602001602760ff168152602001602860ff168152602001602960ff168152602001602a60ff168152602001602b60ff168152602001602c60ff168152602001602d60ff168152602001603160ff168152602001603260ff168152602001603360ff168152602001603460ff168152602001603560ff168152602001603660ff168152602001603760ff168152602001603860ff168152602001603960ff168152602001603a60ff168152602001603b60ff168152602001603c60ff168152602001603d60ff16815250815260200161068060405190810160405280600160ff168152602001600260ff168152602001600360ff168152602001600460ff168152602001600560ff168152602001600660ff168152602001600760ff168152602001600860ff168152602001600960ff168152602001600a60ff168152602001600b60ff168152602001600c60ff168152602001600d60ff168152602001601160ff168152602001601260ff168152602001601360ff168152602001601460ff168152602001601560ff168152602001601660ff168152602001601760ff168152602001601860ff168152602001601960ff168152602001601a60ff168152602001601b60ff168152602001601c60ff168152602001601d60ff168152602001602160ff168152602001602260ff168152602001602360ff168152602001602460ff168152602001602560ff168152602001602660ff168152602001602760ff168152602001602860ff168152602001602960ff168152602001602a60ff168152602001602b60ff168152602001602c60ff168152602001602d60ff168152602001603160ff168152602001603260ff168152602001603360ff168152602001603460ff168152602001603560ff168152602001603660ff168152602001603760ff168152602001603860ff168152602001603960ff168152602001603a60ff168152602001603b60ff168152602001603c60ff168152602001603d60ff16815250815260200161068060405190810160405280600160ff168152602001600260ff168152602001600360ff168152602001600460ff168152602001600560ff168152602001600660ff168152602001600760ff168152602001600860ff168152602001600960ff168152602001600a60ff168152602001600b60ff168152602001600c60ff168152602001600d60ff168152602001601160ff168152602001601260ff168152602001601360ff168152602001601460ff168152602001601560ff168152602001601660ff168152602001601760ff168152602001601860ff168152602001601960ff168152602001601a60ff168152602001601b60ff168152602001601c60ff168152602001601d60ff168152602001602160ff168152602001602260ff168152602001602360ff168152602001602460ff168152602001602560ff168152602001602660ff168152602001602760ff168152602001602860ff168152602001602960ff168152602001602a60ff168152602001602b60ff168152602001602c60ff168152602001602d60ff168152602001603160ff168152602001603260ff168152602001603360ff168152602001603460ff168152602001603560ff168152602001603660ff168152602001603760ff168152602001603860ff168152602001603960ff168152602001603a60ff168152602001603b60ff168152602001603c60ff168152602001603d60ff168152508152506000906008620010e1929190620010f6565b50348015620010ef57600080fd5b5062001283565b826008810192821562001135579160200282015b828111156200113557825162001124908390603462001147565b50916020019190600101906200110a565b5062001143929150620011f0565b5090565b82805482825590600052602060002090601f01602090048101928215620011e25791602002820160005b83821115620011b157835183826101000a81548160ff021916908360ff160217905550926020019260010160208160000104928301926001030262001171565b8015620011e05782816101000a81549060ff0219169055600101602081600001049283019260010302620011b1565b505b50620011439291506200121b565b6200121891905b80821115620011435760006200120e82826200123c565b50600101620011f7565b90565b6200121891905b808211156200114357805460ff1916815560010162001222565b50805460008255601f01602090049060005260206000209081019062001263919062001266565b50565b6200121891905b808211156200114357600081556001016200126d565b610d4080620012936000396000f3006080604052600436106100615763ffffffff7c010000000000000000000000000000000000000000000000000000000060003504166327af473c81146100665780636ee35e5b1461009a578063b3bbcd9a146100b8578063ef6537b5146100d2575b600080fd5b34801561007257600080fd5b506100846004356024356044356100fe565b6040805160ff9092168252519081900360200190f35b3480156100a657600080fd5b5061008460043560ff6024351661014e565b3480156100c457600080fd5b506100d06004356101e8565b005b3480156100de57600080fd5b506100ea6004356103e5565b604080519115158252519081900360200190f35b60086020528260005260406000208260088110151561011957fe5b0180548290811061012657fe5b906000526020600020906020918282040191900692509250509054906101000a900460ff1681565b60008060ff83166008811061015f57fe5b01600860008581526020019081526020016000208360ff1660088110151561018357fe5b01908054610192929190610bb4565b5060008381526008602081905260409091209060ff84169081106101b257fe5b018054600a9081106101c057fe5b90600052602060002090602091828204019190069054906101000a900460ff16905092915050565b604080516003808252608082019092526060918291600091829190602082018580388339505060408051600380825260808201909252929650905060208201606080388339019050509250600091505b600282101561029c5761024a85610409565b848381518110151561025857fe5b60ff90921660209283029091019091015261027285610409565b838381518110151561028057fe5b60ff909216602092830290910190910152600190910190610238565b6102a6848461061f565b905060028160028111156102b657fe5b1415610334576102c585610409565b8360028151811015156102d457fe5b60ff9092166020928302909101909101526102ef848461061f565b905060018160028111156102ff57fe5b141561032f5761030e85610409565b84600281518110151561031d57fe5b60ff9092166020928302909101909101525b6103d3565b600181600281111561034257fe5b14156103d35761035185610409565b84600281518110151561036057fe5b60ff90921660209283029091019091015261037b848461061f565b600281111561038657fe5b81600281111561039257fe5b50600290508160028111156103a357fe5b14156103d3576103b285610409565b8360028151811015156103c157fe5b60ff9092166020928302909101909101525b6103dd8484610857565b505050505050565b60008181526008602081905260408220610400918390610c12565b50600192915050565b60008060008060008060008060006104208a6108ad565b60008b81526008602081905260409091209198508890811061043e57fe5b0154600114156104a95760008a8152600860208190526040909120908890811061046457fe5b018054600090811061047257fe5b90600052602060002090602091828204019190069054906101000a900460ff1697506104a08a886000610997565b50879850610612565b60008a815260086020819052604090912090889081106104c557fe5b01549550600094508493505b8415156104ef576104e28685610a1e565b94506001840193506104d1565b60008a8152600860208190526040909120600019808801955088019350908890811061051757fe5b0180548490811061052457fe5b90600052602060002090602091828204019190069054906101000a900460ff1697508290505b818110156106025760008a8152600860208190526040909120908890811061056e57fe5b0180546001830190811061057e57fe5b90600052602060002090602091828204019190069054906101000a900460ff16600860008c8152602001908152602001600020886008811015156105be57fe5b018054839081106105cb57fe5b90600052602060002090602091828204019190066101000a81548160ff021916908360ff160217905550808060010191505061054a565b61060d8a8884610997565b508798505b5050505050505050919050565b60008060008060008061063188610ae2565b945061063c87610ae2565b935084600314801561064e5750836003145b1561065c576000955061084c565b61066588610b27565b925061067087610b27565b91508460021480156106825750836002145b80156106a0575060088360ff161015806106a0575060088260ff1610155b156106ae576000955061084c565b8360021480156106c2575060068260ff1610155b80156106ce5750846002145b80156106de575060058360ff1611155b156106ec576001955061084c565b836002148015610700575060058260ff1611155b1561070e576002955061084c565b836003148015610722575060028360ff1611155b15610730576001955061084c565b61075187600281518110151561074257fe5b90602001906020020151610b95565b905083600314801561076657508260ff166003145b801561077657508060ff16600814155b15610784576001955061084c565b83600314801561079757508260ff166004145b80156107a7575060028160ff1610155b80156107b7575060078160ff1611155b156107c5576001955061084c565b8360031480156107d857508260ff166005145b80156107e8575060048160ff1610155b80156107f8575060078160ff1611155b15610806576001955061084c565b83600314801561081957508260ff166006145b8015610829575060068160ff1610155b8015610839575060078160ff1611155b15610847576001955061084c565b600095505b505050505092915050565b600080600061086585610b27565b915061087084610b27565b90508060ff168260ff16111561088957600192506108a5565b8060ff168260ff1610156108a057600292506108a5565b600092505b505092915050565b6040805160088082526101208201909252600091606091839182918291602082016101008038833901905050935060009250600091505b600882101561093c576000868152600860208190526040909120908390811061090957fe5b0154156109315781848481518110151561091f57fe5b60209081029091010152600192909201915b6001909101906108e4565b8215156109525761094c866103e5565b50600892505b826001141561096357506000610974565b610971600184036000610a1e565b90505b838181518110151561098257fe5b90602001906020020151945050505050919050565b6000838152600860208190526040822090849081106109b257fe5b018054839081106109bf57fe5b90600052602060002090602091828204019190066101000a81549060ff02191690556008600085815260200190815260200160002083600881101515610a0157fe5b01805490610a13906000198301610c55565b506001949350505050565b6040805160001943014060208083019190915242828401526c010000000000000000000000004102606083015244607483015260948083018590528351808403909101815260b49092019283905281516000938492849282918401908083835b60208310610a9d5780518252601f199092019160209182019101610a7e565b5181516020939093036101000a60001901801990911692169190911790526040519201829003909120935087925083915050811515610ad857fe5b0695945050505050565b6000805b8251811015610b215760008382815181101515610aff57fe5b9060200190602002015160ff161115610b19576001820191505b600101610ae6565b50919050565b6000808080610b3585610ae2565b9150600090505b81811015610b855760008582815181101515610b5457fe5b9060200190602002015160ff161115610b7d57610b78858281518110151561074257fe5b830192505b600101610b3c565b600a60ff84160695945050505050565b60006009600f831611610bab5781600f16610bae565b60005b92915050565b82805482825590600052602060002090601f01602090048101928215610c0257600052602060002091601f016020900482015b82811115610c02578254825591600101919060010190610be7565b50610c0e929150610c8e565b5090565b8260088101928215610c49579182015b82811115610c49578254610c399083908590610bb4565b5091600101919060010190610c22565b50610c0e929150610caf565b815481835581811115610c8957601f016020900481601f01602090048360005260206000209182019101610c899190610cd2565b505050565b610cac91905b80821115610c0e57805460ff19168155600101610c94565b90565b610cac91905b80821115610c0e576000610cc98282610cec565b50600101610cb5565b610cac91905b80821115610c0e5760008155600101610cd8565b50805460008255601f016020900490600052602060002090810190610d119190610cd2565b505600a165627a7a72305820df56eb31c8cadc276b191aa5b489c099a4e53067097f39d91d696390e6d7eed10029",
  "source": "pragma solidity 0.4.24;\n\ncontract Baccarat3 {\n    uint8[][POKERS_NUM] private pokers = [\n\t\t[\n\t\t\t0x01, 0x02, 0x03, 0x04, 0x05, 0x06, 0x07, 0x08, 0x09, 0x0A, 0x0B, 0x0C, 0x0D,\n\t\t\t0x11, 0x12, 0x13, 0x14, 0x15, 0x16, 0x17, 0x18, 0x19, 0x1A, 0x1B, 0x1C, 0x1D,\n\t\t\t0x21, 0x22, 0x23, 0x24, 0x25, 0x26, 0x27, 0x28, 0x29, 0x2A, 0x2B, 0x2C, 0x2D,\n\t\t\t0x31, 0x32, 0x33, 0x34, 0x35, 0x36, 0x37, 0x38, 0x39, 0x3A, 0x3B, 0x3C, 0x3D\n        ],\n\n\t\t[\n\t\t\t0x01, 0x02, 0x03, 0x04, 0x05, 0x06, 0x07, 0x08, 0x09, 0x0A, 0x0B, 0x0C, 0x0D,\n\t\t\t0x11, 0x12, 0x13, 0x14, 0x15, 0x16, 0x17, 0x18, 0x19, 0x1A, 0x1B, 0x1C, 0x1D,\n\t\t\t0x21, 0x22, 0x23, 0x24, 0x25, 0x26, 0x27, 0x28, 0x29, 0x2A, 0x2B, 0x2C, 0x2D,\n\t\t\t0x31, 0x32, 0x33, 0x34, 0x35, 0x36, 0x37, 0x38, 0x39, 0x3A, 0x3B, 0x3C, 0x3D\n        ],\n\t\t\n\t\t[\n\t\t\t0x01, 0x02, 0x03, 0x04, 0x05, 0x06, 0x07, 0x08, 0x09, 0x0A, 0x0B, 0x0C, 0x0D,\n\t\t\t0x11, 0x12, 0x13, 0x14, 0x15, 0x16, 0x17, 0x18, 0x19, 0x1A, 0x1B, 0x1C, 0x1D,\n\t\t\t0x21, 0x22, 0x23, 0x24, 0x25, 0x26, 0x27, 0x28, 0x29, 0x2A, 0x2B, 0x2C, 0x2D,\n\t\t\t0x31, 0x32, 0x33, 0x34, 0x35, 0x36, 0x37, 0x38, 0x39, 0x3A, 0x3B, 0x3C, 0x3D\n        ],\n\t\t\n\t\t[\n\t\t\t0x01, 0x02, 0x03, 0x04, 0x05, 0x06, 0x07, 0x08, 0x09, 0x0A, 0x0B, 0x0C, 0x0D,\n\t\t\t0x11, 0x12, 0x13, 0x14, 0x15, 0x16, 0x17, 0x18, 0x19, 0x1A, 0x1B, 0x1C, 0x1D,\n\t\t\t0x21, 0x22, 0x23, 0x24, 0x25, 0x26, 0x27, 0x28, 0x29, 0x2A, 0x2B, 0x2C, 0x2D,\n\t\t\t0x31, 0x32, 0x33, 0x34, 0x35, 0x36, 0x37, 0x38, 0x39, 0x3A, 0x3B, 0x3C, 0x3D\n        ],\n\n\t\t[\n\t\t\t0x01, 0x02, 0x03, 0x04, 0x05, 0x06, 0x07, 0x08, 0x09, 0x0A, 0x0B, 0x0C, 0x0D,\n\t\t\t0x11, 0x12, 0x13, 0x14, 0x15, 0x16, 0x17, 0x18, 0x19, 0x1A, 0x1B, 0x1C, 0x1D,\n\t\t\t0x21, 0x22, 0x23, 0x24, 0x25, 0x26, 0x27, 0x28, 0x29, 0x2A, 0x2B, 0x2C, 0x2D,\n\t\t\t0x31, 0x32, 0x33, 0x34, 0x35, 0x36, 0x37, 0x38, 0x39, 0x3A, 0x3B, 0x3C, 0x3D\n        ],\n\n\t\t[\n\t\t\t0x01, 0x02, 0x03, 0x04, 0x05, 0x06, 0x07, 0x08, 0x09, 0x0A, 0x0B, 0x0C, 0x0D,\n\t\t\t0x11, 0x12, 0x13, 0x14, 0x15, 0x16, 0x17, 0x18, 0x19, 0x1A, 0x1B, 0x1C, 0x1D,\n\t\t\t0x21, 0x22, 0x23, 0x24, 0x25, 0x26, 0x27, 0x28, 0x29, 0x2A, 0x2B, 0x2C, 0x2D,\n\t\t\t0x31, 0x32, 0x33, 0x34, 0x35, 0x36, 0x37, 0x38, 0x39, 0x3A, 0x3B, 0x3C, 0x3D\n        ],\n\n\t\t[\n\t\t\t0x01, 0x02, 0x03, 0x04, 0x05, 0x06, 0x07, 0x08, 0x09, 0x0A, 0x0B, 0x0C, 0x0D,\n\t\t\t0x11, 0x12, 0x13, 0x14, 0x15, 0x16, 0x17, 0x18, 0x19, 0x1A, 0x1B, 0x1C, 0x1D,\n\t\t\t0x21, 0x22, 0x23, 0x24, 0x25, 0x26, 0x27, 0x28, 0x29, 0x2A, 0x2B, 0x2C, 0x2D,\n\t\t\t0x31, 0x32, 0x33, 0x34, 0x35, 0x36, 0x37, 0x38, 0x39, 0x3A, 0x3B, 0x3C, 0x3D\n        ],\n\n\t\t[\n\t\t\t0x01, 0x02, 0x03, 0x04, 0x05, 0x06, 0x07, 0x08, 0x09, 0x0A, 0x0B, 0x0C, 0x0D,\n\t\t\t0x11, 0x12, 0x13, 0x14, 0x15, 0x16, 0x17, 0x18, 0x19, 0x1A, 0x1B, 0x1C, 0x1D,\n\t\t\t0x21, 0x22, 0x23, 0x24, 0x25, 0x26, 0x27, 0x28, 0x29, 0x2A, 0x2B, 0x2C, 0x2D,\n\t\t\t0x31, 0x32, 0x33, 0x34, 0x35, 0x36, 0x37, 0x38, 0x39, 0x3A, 0x3B, 0x3C, 0x3D\n\t\t   \n        ]\n\t];\n\n    enum UserType {DEFAULT, BANKER, PLAYER}\n\tenum Winner {TIE, BANKER, PLAYER}\n\n\tuint8 private constant POKERS_NUM = 8;\n\n\tmapping(uint256 => uint8[][POKERS_NUM]) public cards;\n\n\tevent LogShuffle(uint256 shuffle);\n\tevent LogCards(uint8[] card);\n\tevent LogNeedMore(\n\t\tuint8[] bankerCards, \n\t\tuint8   bankerPoints, \n\t\tuint8[] playerCards,\n\t\tuint8   playerPoints\n\t);\n\tevent LogTest(uint256 value);\n\n\tfunction shuffle(uint256 _roomId) \n\t    public \n\t\treturns (bool) \n\t{\n    \tcards[_roomId] = pokers;\n\t\treturn true;\n\t}\n\n\tfunction shuffle(uint256 _roomId, uint8 _pokersNum) \n\t    public \n\t\treturns (uint8) \n\t{\n        cards[_roomId][_pokersNum] = pokers[_pokersNum];    \t\n\t\treturn cards[_roomId][_pokersNum][10];\n\t}\n\n\tfunction dealCard(uint256 _roomId) \n\t    public \n\t{\n\t\tuint8[] memory local_bankerCards = new uint8[](3);\n\t\tuint8[] memory local_playerCards = new uint8[](3);\n\t\tfor(uint256 i=0; i<2; i++) {\n\t\t\tlocal_bankerCards[i] = getCard(_roomId); \n\t\t\tlocal_playerCards[i] = getCard(_roomId);\n\t\t}\n\t    \n\t\tUserType who = needMore(local_bankerCards, local_playerCards);\n\t\tif (who == UserType.PLAYER) {\n\t        local_playerCards[2] = getCard(_roomId);\n\n\t\t\twho = needMore(local_bankerCards, local_playerCards);\n\t\t\tif (who == UserType.BANKER) {\n\t\t        local_bankerCards[2] = getCard(_roomId);\t    \n\t\t\t}\n\t\t} else if (who == UserType.BANKER) {\n\t\t    local_bankerCards[2] = getCard(_roomId);\n\n\t\t\twho == needMore(local_bankerCards, local_playerCards);\n\t\t\tif (who == UserType.PLAYER) {\n\t\t\t    local_playerCards[2]= getCard(_roomId);\n\t\t\t}\n\t\t}\n\n\t\tdetectWinner(local_bankerCards, local_playerCards);\n\t}\n\n\t//检测是否需要继续博牌\n\tfunction needMore(uint8[] _bankerCards, uint8[] _playerCards)\n\t    private\n\t\tpure\n\t\treturns (UserType)\n\t{\n\t\tuint256 local_bankerLength = cardsLength(_bankerCards);\n\t\tuint256 local_playerLength = cardsLength(_playerCards);\n\t\t//庄闲两家已各发了3张牌，无需再发\n\t\tif (local_bankerLength == 3 && local_playerLength == 3) {\n\t\t    return UserType.DEFAULT;\n\t\t}\n\n        uint8 local_bankerPoints = points(_bankerCards);\t\n\t\tuint8 local_playerPoints = points(_playerCards);\n\t\tif ( //庄闲手上各有2张牌，并且其中一家点数>=8点，无需再发\n\t\t\tlocal_bankerLength == 2 \n\t\t\t&& local_playerLength == 2 \n\t\t    && (local_bankerPoints >= 8 || local_playerPoints >= 8)\n\t\t) { \n\t\t\treturn UserType.DEFAULT;\n\t\t}\n\n\t\tif ( //庄闲手上各有2张牌且闲家的点数>=6 && 庄家的点数<=5，需要给庄家再发\n\t\t    local_playerLength == 2 \n\t\t\t&& local_playerPoints >= 6\n\t\t\t&& local_bankerLength == 2\n\t\t\t&& local_bankerPoints <= 5\n\t\t) {\n\t\t\treturn UserType.BANKER;\n\t\t}\n\n\t\t//闲家手上有2张牌且点数=<5，闲家需要再发一张牌\n\t\tif (local_playerLength == 2 && local_playerPoints <= 5) {\n\t\t\treturn UserType.PLAYER;\n\t\t}\n\n\t\t//闲家手上有3张牌且庄家的点数=<2\n\t\tif (local_playerLength == 3 && local_bankerPoints <= 2) {\n\t\t\treturn UserType.BANKER;\n\t\t}\n\n\t    uint8 local_playerLastCardPoint = points(_playerCards[2]);\n\n\t\tif ( //闲家手上有3张牌 && 庄家的点数==3 && 闲家最后一张牌点数不为8\n\t\t\tlocal_playerLength == 3 \n\t\t    && local_bankerPoints == 3\n\t\t    && local_playerLastCardPoint != 8\n\t\t) {\n\t\t\treturn UserType.BANKER;\n\t\t}\n\n\t\tif (\n\t\t    local_playerLength == 3\n\t\t\t&& local_bankerPoints == 4\n\t\t    && local_playerLastCardPoint >= 2\n\t\t\t&& local_playerLastCardPoint <= 7\n\t\t) { \n\t\t\treturn UserType.BANKER;\n\t\t}\n\n\t\tif (\n\t        local_playerLength == 3 \n\t\t\t&& local_bankerPoints == 5\n            && local_playerLastCardPoint >= 4\n\t\t\t&& local_playerLastCardPoint <= 7\n\t\t) {\n\t\t\treturn UserType.BANKER;\n\t\t}\n\n\t\tif (\n\t\t    local_playerLength == 3\n\t\t\t&& local_bankerPoints == 6\n\t\t    && local_playerLastCardPoint >= 6\n\t\t\t&& local_playerLastCardPoint <= 7\n\t\t) {\n\t\t\treturn UserType.BANKER;\n\t\t}\n\n\t\treturn UserType.DEFAULT;\n\t}\n\n\t//判断是否为对子\n\tfunction isPair(uint8[] _cards) \n\t    private\n\t\tpure\n\t\treturns (bool)\n\t{\n        uint256 local_length = cardsLength(_cards);\n\t\tif (local_length >= 2) {\n\t        return points(_cards[0]) == points(_cards[1]);\t\n\t\t}\n\t\treturn false;\n\t}\n\n\t//检测手上有几张牌\n\tfunction cardsLength(uint8[] _cards) \n\t    private\n\t\tpure\n\t\treturns (uint256 local_length) \n\t{\n\t    for(uint256 i=0; i<_cards.length; i++) {\n\t        if(_cards[i]>0) {\n\t\t\t    local_length += 1;\n\t\t\t}\t\n\t\t}\n\t}\n\n\t//获取一手牌的点数\n\tfunction points(uint8[] _cards)\n\t    private\n\t\tpure\n\t\treturns (uint8)\n\t{\n        uint8 local_point = 0;\t\n\t\tuint256 local_length = cardsLength(_cards);\n\n\t\tfor(uint256 i=0; i<local_length; i++) {\n\t\t\tif(_cards[i]>0) {\n\t\t        local_point += points(_cards[i]);    \n\t\t\t}\n\t\t}\n\n\t\treturn local_point % 0x0A;\n\t}\n    \n\t//获取单张牌的点数\n\tfunction points(uint8 _card)\n\t    private\n\t\tpure\n\t\treturns (uint8) \n\t{\n        return ((_card & 0x0F) > 0x09) ? 0 : (_card & 0x0F);\t\n\t}\n\n\t//检测胜出玩家\n\tfunction detectWinner(uint8[] _bankerCards, uint8[] _playerCards)\n\t    private\n\t\tpure\n\t\treturns (Winner)\n\t{\n        uint8 local_bankerPoints = points(_bankerCards);\t\n\t\tuint8 local_playerPoints = points(_playerCards);\n\n\t\tif (local_bankerPoints > local_playerPoints) {\n\t\t   return Winner.BANKER;\n\t\t}\n\n\t\tif (local_bankerPoints < local_playerPoints) {\n\t\t    return Winner.PLAYER;\n\t\t}\n\n\t\treturn Winner.TIE;\n\t}\n\n\tfunction getCard(uint256 _roomId) \n\t    private \n\t\treturns(uint8) \n\t{\n\t\tuint8 local_card;\n        uint256 local_pokersNum;\n\t    \n\t    local_pokersNum = getPokersNum(_roomId);\t\n\n        if(cards[_roomId][local_pokersNum].length == 1) {\n\t\t    local_card = cards[_roomId][local_pokersNum][0];\n\t\t\tremoveCard(_roomId, local_pokersNum, 0);\n\t\t\treturn local_card;\n\t\t}\n\t\tuint256 local_upper = cards[_roomId][local_pokersNum].length;\n\t\tuint256 local_randomNum = 0;\n\t\tuint256 local_seed = 0;\n\n\t\twhile(local_randomNum == 0) {\n\t        local_randomNum = random(local_upper, local_seed);\t\n\t\t\tlocal_seed += 1;\n\t\t}\n        \n        uint256 local_index = local_randomNum - 1;\n        uint256 local_maxLoop = local_upper - 1;\t\t\n\n\t\tlocal_card = cards[_roomId][local_pokersNum][local_index];\n        //将后面的牌往前移\n\t\tfor(uint256 i=local_index; i<local_maxLoop; i++) {\n\t        cards[_roomId][local_pokersNum][i] = cards[_roomId][local_pokersNum][i+1];\t\n\t\t}\n        removeCard(_roomId, local_pokersNum, local_maxLoop);\n\t\treturn local_card;\n\t}\n\n    function removeCard(uint256 _roomId, uint256 _pokersNum, uint256 _index) \n\t    private\n\t\treturns (bool)\n\t{\n        delete cards[_roomId][_pokersNum][_index];\t\n\t\tcards[_roomId][_pokersNum].length--;\n\n\t\treturn true;\n\t}\n\n\tfunction getPokersNum(uint256 _roomId) \n\t    private \n\t\treturns (uint256) \n\t{\n        uint256[] memory local_pokers = new uint256[](POKERS_NUM);\n        uint256 local_index = 0;\n\n        for(uint256 i=0; i<POKERS_NUM; i++) {\n\t        if(cards[_roomId][i].length != 0) {\n        \t    local_pokers[local_index] = i;\n\t\t\t\tlocal_index += 1;\n\t\t\t}\t\n\t\t}        \n\t\tif(local_index == 0) {\n\t\t\tshuffle(_roomId);\n\t\t\tlocal_index = POKERS_NUM;\n\t\t\t//emit LogShuffle(local_index);\n\t\t}\n\t\tuint256 local_key;\n\t\tif(local_index==1) {\n\t\t    local_key = 0;\n\t\t} else {\n\t\t   \tlocal_key = random(local_index-1, 0);\n\t\t}\n        \n\t\treturn local_pokers[local_key];\n\t}\n\n\t//产生一个随机数\n\tfunction random(uint256 _upper, uint256 _seed)\n\t    private\n\t\tview\n        returns (uint256 local_num)\n\t{\n\t\tbytes memory local_randSeed = abi.encodePacked(\n\t\t\tblockhash(block.number - 1),\n\t\t\tnow,\n\t\t\tblock.coinbase,\n\t\t\tblock.difficulty,\n\t\t\t_seed\n\t\t);\n        uint256 seed = uint256(keccak256(local_randSeed));    \t\n\t\tlocal_num = (seed % _upper);\n\t}\n}\n",
  "sourcePath": "/Users/knight/Documents/geth/smart-contracts/eth-baccarat/contracts/Baccarat3.sol",
  "compiler": {
    "name": "solc",
    "version": "0.4.24+commit.e67f0147.Emscripten.clang"
  },
  "schemaVersion": "2.0.1",
  "updatedAt": "2018-08-09T11:31:51.935Z"
}